:020000040800F2
:1000000068090020D5010008DD010008DF010008B3
:10001000E1010008E3010008E5010008000000001C
:10002000000000000000000000000000E7010008E0
:10003000E901000800000000EB010008ED010008E4
:10004000EF010008EF010008EF010008EF010008D0
:10005000EF010008EF010008EF010008EF010008C0
:10006000EF010008EF010008EF010008EF010008B0
:10007000EF010008EF010008EF010008EF010008A0
:10008000EF010008EF010008EF010008EF01000890
:10009000EF010008EF010008EF010008CD1A000889
:1000A000EF010008EF010008EF010008EF01000870
:1000B000EF010008EF010008EF010008EF01000860
:1000C000EF010008EF010008EF010008EF01000850
:1000D000EF010008EF010008EF010008EF01000840
:1000E000EF010008EF010008EF010008EF01000830
:1000F000EF010008EF010008EF010008EF01000820
:10010000EF010008EF010008EF010008EF0100080F
:10011000EF010008EF010008EF010008EF010008FF
:10012000EF010008EF010008EF010008EF010008EF
:1001300000F002F800F03FF80AA090E8000C8244BA
:100140008344AAF10107DA4501D100F034F8AFF297
:10015000090EBAE80F0013F0010F18BFFB1A43F0A5
:1001600001031847C4530000E4530000103A24BFB1
:1001700078C878C1FAD8520724BF30C830C144BF0C
:1001800004680C607047000000230024002500264E
:10019000103A28BF78C1FBD8520728BF30C148BFEA
:1001A0000B607047642904F02181002070471FB55F
:1001B0001FBD10B510BD04F058FA1146FFF7F7FF48
:1001C00001F096FC04F076FA03B4FFF7F2FF03BCEB
:1001D00004F07AFA0948804709480047FEE7FEE73D
:1001E000FEE7FEE7FEE7FEE7FEE7FEE7FEE7FEE7E7
:1001F00004480549054A064B70470000F102000813
:10020000310100086803002068090020680500200B
:10021000680500200CB50020019000906948006836
:1002200040F480306749086000BF6648006800F409
:10023000003000900198401C0190009818B9019876
:10024000B0F5A06FF1D15F48006810F4003F02D014
:100250000120009001E0002000900098012842D188
:100260005948006840F01000574908600846006887
:1002700020F0030008600846006840F002000860B3
:10028000504840684F494860084640684860084602
:10029000406840F4806048600846406820F47C1064
:1002A00048600846406840F4E81048600846006826
:1002B00040F08070086000BF4248006810F0007F86
:1002C000FAD04048406820F003003E4948600846A4
:1002D000406840F00200486000BF3A48406800F0C3
:1002E0000C000828F9D10CBD10B5FFF793FF10BD25
:1002F00010B53448006840F00100324908600846F3
:100300004068324908402F49486008460068304933
:1003100008402C4908600846006820F480200860E6
:100320000846406820F4FE0048604FF41F008860D3
:10033000FFF7DAFF10BD10B5002100200022214B8D
:100340005B6803F00C0121B1042906D0082928D1EB
:1003500007E0204B204C236027E01E4B1E4C2360FF
:1003600023E0184B5B6803F47010164B5B6803F4D2
:100370008032022303EB904022B9184B4343164CC2
:1003800023600DE00F4B5B6813F4003F04D0134B68
:100390004343114C236003E00E4B43430E4C236058
:1003A00003E00C4B0C4C236000BF00BF054B5B68A7
:1003B000C3F303130A4CE15C074B1B68CB40064CAC
:1003C000236010BD00100240002002400000FFF832
:1003D000FFFFF6FE00127A000000002000093D0039
:1003E00004000020DD48006840F00100DB4908609F
:1003F00008464068DA490840D8494860084600681D
:10040000D8490840D54908600846006820F4802093
:1004100008600846406820F4FE0048604FF41F0062
:1004200088607047CD49096821F48031CB4A11605A
:100430001146096821F480211160B0F5803F03D096
:10044000B0F5802F0ED106E0C449096841F480312F
:10045000C24A116007E0C149096841F4A021BF4ABE
:10046000116000E000BF00BF704710B501460022D8
:10047000002300204A11012A02D1B84C236806E06B
:10048000022A02D1B54C236A01E0B44C636A01F040
:100490001F02012494401C4201D0012000E00020F2
:1004A00010BD38B5002000900024002500BF312089
:1004B000FFF7DBFF05460098401C00900098B0F560
:1004C000A06F01D0002DF2D03120FFF7CEFF08B190
:1004D000012400E00024204638BD014600209F4A48
:1004E000106820F0F80040EAC100106070479E4993
:1004F0000860704702460020984B586820F47C1032
:1005000042EA01031843954B5860704796490866C4
:10051000704701460020914A506820F003000843CC
:10052000506070478D48406800F00C0070470146ED
:1005300000208A4A506820F0F0000843506070475D
:1005400001460020854A506820F4E060084350606E
:10055000704701460020814A506820F4605040EA0C
:10056000C1005060704729B17C4A527A02437B4BEC
:100570005A7204E0794A527A8243784B5A72704731
:100580007A490860704701460020744A506820F498
:1005900040400843506070470021754A11706F4A0F
:1005A00082F82010012802D0042808D103E001219C
:1005B0006F4A117004E005216D4A117000E000BF20
:1005C00000BF70476B49086070476449096A01437E
:1005D000624A11627047674944390860704730B514
:1005E00000210022002400235C4D6D6805F00C0101
:1005F00021B1042905D0082923D105E05E4D05600D
:1006000022E05D4D05601FE0544D6D6805F47012E9
:10061000524D6D6805F48034022505EB92421CB9F9
:10062000564D554305600BE04C4D6D6815F4003F89
:1006300003D0524D5543056002E04F4D55430560D0
:1006400002E04D4D056000BF00BF444D6D6805F0F0
:10065000F00109094A4D6B5C0568DD4045603F4D7E
:100660006D6805F4E061090A454D6B5C4568DD4045
:1006700085603A4D6D6805F46051C90A404D6B5C68
:100680004568DD40C560354D6D6805F44041890B16
:100690003C4D6B5CC568B5FBF3F5056130BD29B118
:1006A0002E4A526902432D4B5A6104E02B4A52698B
:1006B00082432A4B5A61704729B1284A9269024302
:1006C000264B9A6104E0254A92698243234B9A6142
:1006D000704729B1214AD2690243204BDA6104E014
:1006E0001E4AD26982431D4BDA61704729B11B4A09
:1006F000D2680243194BDA6004E0184AD268824398
:10070000164BDA60704729B1144A12690243134B41
:100710001A6104E0114A12698243104B1A61704752
:1007200014494039086070470F49C86470470B4945
:10073000C87170470948406A40F0807007494862B4
:10074000704701460020054A92680A4201D0012004
:1007500000E0002070470149887270470010024095
:100760000000FFF8FFFFF6FE00004242D8004242C0
:10077000201002408004424200127A0000093D002D
:10078000140000202400002010B50446CA4884420A
:1007900008D101210420FFF7A9FF00210420FFF761
:1007A000A5FF46E0C548844208D101210820FFF793
:1007B0009DFF00210820FFF799FF3AE0C0488442DE
:1007C00008D101211020FFF791FF00211020FFF731
:1007D0008DFF2EE0BB48844208D101212020FFF785
:1007E00085FF00212020FFF781FF22E0B6488442E8
:1007F00008D101214020FFF779FF00214020FFF7B9
:1008000075FF16E0B148844208D101218020FFF72E
:100810006DFF00218020FFF769FF0AE0AC488442A9
:1008200007D101218015FFF761FF0021A015FFF717
:100830005DFF10BD10B501210846FFF757FF0021ED
:100840000120FFF753FF10BD2DE9F04102460025BE
:100850000026002000230024002791F803C00CF09C
:100860000F0591F803C01CF0100F03D091F802C0DF
:100870004CEA050591F800C0BCF1000F31D01468B6
:1008800000202BE04FF0010C0CFA00F3B1F800C08F
:100890000CEA03069E4220D183004FF00F0C0CFAA5
:1008A00003F7BC4305FA03FC4CEA040491F803C0C7
:1008B000BCF1280F06D14FF0010C0CFA00FCC2F875
:1008C00014C00AE091F803C0BCF1480F05D14FF005
:1008D000010C0CFA00FCC2F810C0401C0828D1D34F
:1008E0001460B1F800C0BCF1FF0F34DD5468002083
:1008F0002EE000F1080C4FF0010808FA0CF3B1F8F3
:1009000000C00CEA03069E4221D183004FF00F0C79
:100910000CFA03F7BC4305FA03FC4CEA040491F813
:1009200003C0BCF1280F05D100F1080C08FA0CF83F
:10093000C2F8148091F803C0BCF1480F07D100F150
:10094000080C4FF0010808FA0CF8C2F81080401C9F
:100950000828CED35460BDE8F0814FF6FF710180C6
:10096000022181700421C170704702460020936803
:100970000B4201D0012000E000207047014688684A
:1009800080B2704702460020D3680B4201D001209C
:1009900000E0002070470146C86880B270470161DE
:1009A0007047416170470AB1016100E041617047E1
:1009B000C16070474FF480320A4382618161826175
:1009C00082698269704702460020424B18684FF6E0
:1009D0008073184040EA021008433E4B186070478D
:1009E0003D49C8617047F0B50A4600230024002144
:1009F000002500F00046B6F1004F02D1354EF169F6
:100A000001E0344E7168C0F3034583B200F4401630
:100A1000B6F5401F08D121F070612E4E766826F0A1
:100A200070662C4F7E6012E000F48016B6F5801FD1
:100A300006D1032606FA05F4A14341F0706106E0F1
:100A4000460D360103FA06F6B14341F0706122B15A
:100A5000460D360103FA06F6314300F00046B6F1C2
:100A6000004F02D11B4EF16101E01A4E7160F0BDE2
:100A700030B500228B071C0F0F2303FA04F2154B2D
:100A800008338C1053F824309343124C08348D10E3
:100A900044F8253023468C1053F824308C07240F5B
:100AA00000FA04F423430B4C08348D1044F825302D
:100AB00030BD0A490860704700080140000C014041
:100AC000001001400014014000180140001C0140CA
:100AD000002001400000014000002042DC002042D4
:100AE00030B943F2DB014FF0204242F8201005E01C
:100AF00043F2D2014FF0204242F820106FF07042D2
:100B0000411C4FF0204343F8212011461A4602EBC6
:100B10008002C2F80411704710280AD118214FF042
:100B200020421166402151664FF0FC319166D1663A
:100B300010E01821F84A11604FF040014FF02042B8
:100B4000C2F884104FF0FC31F44A11604FF020429B
:100B5000C2F88C1070471820F14908604FF000006F
:100B60004FF02041C1F8A4004FF0FC30ED4908607F
:100B700001F10401086001F1040108607047D0E947
:100B800001121143C26811430269114342691143C2
:100B900082691143C2691143026A1143426A1143D7
:100BA000826A1143C26A1143026B11434FF0204322
:100BB000026843F822108168082908D11A460168A2
:100BC00052F8211041F04001026843F82210416BB5
:100BD0000968426B526841EA0211426B926841EA2D
:100BE0000221426B928941EA0241426B128A41EA38
:100BF0000251426B127D41EA0261426B92691143DC
:100C00000268521C4FF0204343F82210C16AB1F52C
:100C1000804F1AD1816B0968826B526841EA0211D8
:100C2000826B926841EA0221826B128A41EA025188
:100C3000826B127D41EA0261826B92691143026804
:100C400003EB8202C2F8041108E06FF070414FF02C
:100C50002043026803EB8202C2F80411704730B5EA
:100C6000002100220023446844F0080485682C43D6
:100C7000C5682C4305692C43456944EA45248569C8
:100C800044EA4531C4692468C5696D6844EA0524AD
:100C9000C5692D8944EA0544C5692D7B44EA05628E
:100CA000046A2468056A6D6844EA0524056A2D898A
:100CB00044EA0544056A2D7B44EA05630468102C68
:100CC00005D14FF020442166A266E36607E0924C0E
:100CD00021604FF02044C4F88820934C236030BD3D
:100CE000016841F01001426841EA4221826841EA0C
:100CF00042318B4A1160C1680968C268526841EA92
:100D00000221C268128941EA0241C268127B41EAAB
:100D10000261844A1160016909680269526841EA06
:100D200002210269128941EA02410269127B41EA09
:100D300002617E4A1160416909684269526841EA6C
:100D400002214269128941EA02414269127B41EA69
:100D500002614FF02042C2F8B010704700210160DC
:100D60000221416000218160C160016141618161B6
:100D7000C16101624FF480514162490081620021EA
:100D8000C16201630F21426B1160426B5160FF2110
:100D9000426B91600F21426BD160426B1161426BDB
:100DA00051610021426B91610F21826B1160826B56
:100DB0005160FF21826B91600F21826BD160826B49
:100DC0001161826B51610021826B9161704710212A
:100DD0000160002141608160C16001614161816108
:100DE000FC21C2691160C2695160C2699160C26927
:100DF000D160026A1160026A5160026A9160026AFF
:100E0000D16070470021016041608160FC21C268AF
:100E10001160C2685160C2689160C268D1600269A5
:100E2000116002695160026991600269D160426992
:100E3000116042695160426991604269D1607047B6
:100E400051B14FF0204252F8202042F001024FF001
:100E5000204343F8202009E04FF0204252F82020A0
:100E6000334B1A404FF0204343F82020704799B18C
:100E7000102808D14FF02042126E42F004024FF0C9
:100E800020431A661DE0244A126842F004024FF023
:100E90002043C3F8802014E0102809D14FF02042ED
:100EA000126E234BDB1E1A404FF020431A6608E0F7
:100EB000194A12681F4B02EA03024FF02043C3F89D
:100EC0008020704740B11649096841F004014FF095
:100ED0002042C2F8A01008E011490968154A01EA49
:100EE00002014FF02042C2F8A010704799B11028BB
:100EF00008D14FF02042126E42F040024FF02043E2
:100F00001A662DE0044A126842F040024FF0204376
:100F1000C3F8802024E00FE0800000A0880000A03B
:100F2000A00000A0A80000A08C0000A0AC0000A0C1
:100F3000FEFF0F00FBFF0F00102808D14FF02042EA
:100F4000126E684B1A404FF020431A6608E0664A5A
:100F50001268644B02EA03024FF02043C3F880207A
:100F6000704701460020102903D14FF02042506FF6
:100F700001E05E4A1068704710B5F2B1102807D141
:100F80004FF020435B6E0B434FF02044636632E02A
:100F9000B0F5807F08D1564B1B6843EA01034FF040
:100FA0002044C4F8843026E0524B1B6843EA010316
:100FB0004FF02044C4F8A4301DE0102807D14FF0B2
:100FC00020435B6E8B434FF02044636613E0B0F523
:100FD000807F08D1464B1B6823EA01034FF0204471
:100FE000C4F8843007E0434B1B6823EA01034FF049
:100FF0002044C4F8A43010BD10B5024600200023E0
:10100000102A03D14FF02044636E07E0B2F5807FD1
:1010100002D1374C236801E0364C23680B4201D0E3
:10102000012000E0002010BD102807D14FF0204221
:10103000526E8A434FF020435A6613E0B0F5807F2A
:1010400008D12B4A126822EA01024FF02043C3F86C
:10105000842007E0274A126822EA01024FF0204369
:10106000C3F8A420704770B5024600200023002476
:101070000025102A03D14FF02046736E07E0B2F529
:10108000807F02D11A4E336801E01A4E336803EABA
:10109000010403EAD10514B10DB1012000E00020E4
:1010A00070BD102808D14FF02042526E22EAD102C2
:1010B0004FF020435A6613E0B0F5807F08D10C4A08
:1010C000126822EAD1024FF02043C3F8842007E0DF
:1010D000084A126822EAD1024FF02043C3F8A42044
:1010E00070470000BFFF0F00800000A0940000A028
:1010F000840000A0A40000A031490143314A1160DE
:10110000704770B5002100230F22C4780CB32D4C1A
:10111000246804F4E064C4F5E064210AC1F1040326
:10112000CA40447804FA03F1847814402143090149
:10113000254C0678A155047804F01F050124AC4025
:1011400005786D114FF0E02606EB8505C5F80041E6
:1011500009E0047804F01F050124AC401B4D06781B
:10116000761145F8264070BD194A0A400243154BD6
:101170001B1F1A60704739B1124A121D12680243D0
:10118000104B1B1D1A6006E00E4A121D12688243A6
:101190000C4B1B1D1A607047042808D14FF0E0214A
:1011A000096941F004014FF0E022116107E04FF0BE
:1011B000E021096921F004014FF0E022116170473C
:1011C0000000FA050CED00E000E400E080E100E042
:1011D00080FFFF1F002044490860091D0860091DA9
:1011E0000860091D086041483F4914310860704794
:1011F00000213D498279002A3AD00A4612680368E4
:101200009A430B461A600A1D126803689A430B1D25
:101210001A60027911440A6803681A430A60324A64
:101220000832126803689A432F4B08331A601A1D5C
:10123000126803689A432C4B0C331A604279102AC7
:101240000ED11A1F126803681A43274B08331A601D
:101250001A1D126803681A43234B0C331A600DE001
:101260002149427911440A6803681A430A6005E07B
:10127000027911440A6803689A430A6070470021A2
:10128000016001710C214171002181717047164983
:10129000103109680143144A103211607047014649
:1012A0000020114A143212680A4201D0012000E0E5
:1012B000002070470C491431086070470146002037
:1012C0000022094B1B6803EA0102074B14331B6819
:1012D0000B4202D00AB1012000E000207047024911
:1012E000143108607047000000040140FFFF0F0048
:1012F00010B50446BE48844208D101218014FFF78E
:10130000F5F90021A014FFF7F1F916E0B94884427D
:1013100008D101210014FFF7F6F900212014FFF78E
:10132000F2F90AE0B448844207D10121C013FFF763
:10133000EAF90021E013FFF7E6F910BD10B500222D
:10134000028802F441520B884C8823438C88234343
:10135000CC8823430C8923434C8923438C89234322
:10136000CC8923431A430280838B4FF2FF742340BE
:1013700083830B8A038210BD2DE9F04F85B00546AB
:101380000C464FF0000902274FF000084FF0010B08
:101390000026B246A88B4FF240010840A8830220E5
:1013A0002884B5F81C90A068022801D100BF38E05D
:1013B000A08810B94FF0010B01E04FF0020B8D48EF
:1013C000854200D100E000BF6846FFF708F9DDF86C
:1013D00000A0E088B0F5007F0AD14FEA1A2000EBA8
:1013E00080004000A168B0FBF1F0401D86B20BE028
:1013F0004FEA4B10BAFBF0F000EB80004000A16810
:10140000B0FBF1F0401D86B20A20B6FBF0F606F004
:101410000108A6EB0800C0F34F074FF6FF7000EA83
:101420000828022F01DBFF2F02DD02274FF0000802
:10143000E08840EA080038432884A088A18908434E
:10144000618808432188084340F4006040EA0909A4
:10145000A5F81C9005B0BDE8F08F00210180418007
:101460008180C180018141818181C1810721018207
:1014700070470021018041808180C180022181600C
:1014800000218181704721B1028842F04002028030
:1014900004E002884FF6BF731A400280704721B102
:1014A000828B42F48062828304E0828B4FF6FF33AA
:1014B0001A408283704730B5002400230C110125A7
:1014C000A540ABB21AB185881D43858002E08588AE
:1014D0009D43858030BD1AB183880B43838002E031
:1014E00083888B4383807047818170470146888958
:1014F0007047A1F57E42FF3A04D0028842F4807220
:10150000028004E002884FF6FF631A4002807047B1
:1015100021B1828842F00402828004E082884FF682
:10152000FB731A408280704702884FF2FF731A40A3
:10153000028002880A4302807047018841F480518A
:101540000180704721B1028842F40052028004E019
:1015500002884DF6FF731A40028070470246002051
:10156000012901D0108B00E0908A70470146088A5B
:101570007047B1F5804F04D1028842F48042028066
:1015800004E002884BF6FF731A400280704702465F
:10159000002013890B4201D0012000E00020704799
:1015A000CA4302817047F0B50246002000240023A0
:1015B000002501F00F070126BE40B4B20B11012631
:1015C0009E40B3B2968806EA03051689264202D0E9
:1015D0000DB1012000E00020F0BD10B5002201F0A7
:1015E0000F040123A3409AB2D343038110BD00002E
:1015F0000030014000380040003C004010B501219F
:101600000220FFF766F86420FE49088041F2883026
:10161000091D0880FB481C38008840F00100F9498A
:101620001C390880F7482838008840F00100F54947
:10163000283908801D200121814042094FF0E02314
:1016400003EB8202C2F8001100BF10BD00B597B0D5
:1016500001217C20FFF730F801210802FFF71FF875
:10166000E948406820F44040E7494860084640683F
:1016700048600846806940F4007088614CF233701D
:10168000ADF8000018208DF8030003208DF802004B
:101690006946DE48FFF7D8F84FF68070ADF80000D5
:1016A00018208DF8030003208DF802006946D84801
:1016B000FFF7CAF810208DF803004020ADF80000B5
:1016C0006946D248FFF7C0F80220ADF8000069462D
:1016D000CF48FFF7B9F818208DF803008020ADF847
:1016E00000006946C948FFF7AFF84FF40060ADF855
:1016F00000006946C548FFF7A7F88021C348FFF7F7
:101700004EF90221C248FFF74CF91021BF48FFF7FC
:1017100046F92021BD48FFF742F902200190002040
:1017200002900520039000200490059006904FF051
:101730008050079000200890099008200A901020FF
:101740000B9000200C900E900F9010904FF4805052
:101750001190002012901390149001A815901690EB
:1017600008A8FFF70CFA01210020FFF769FB02210E
:10177000A748FFF716F9A74800F0F8F90221A44896
:10178000FFF70DF9A34800F0F1F90121002000F066
:101790002DFA0A2000F0EAF91021152000F026FAAF
:1017A0004021112000F022FA41F22861102000F0BF
:1017B0001DFA0021122000F019FA41F24D01132008
:1017C00000F014FA0A2000F0D1F91021122000F0E4
:1017D0000DFA0A2000F0CAF942F22061102000F050
:1017E00005FA43F24D41132000F000FA0A2000F000
:1017F000BDF90021012000F0F9F94FF440710220F9
:1018000000F0F4F941F23801032000F0EFF940F262
:101810000461082000F0EAF90021092000F0E6F94F
:1018200008210A2000F0E2F90221412000F0DEF94F
:101830004FF41C51602000F0D9F90121612000F023
:10184000D5F94FF4C171902000F0D0F90121932017
:1018500000F0CCF91021A32000F0C8F90A2000F014
:1018600085F90021302000F0C1F940F20251312009
:1018700000F0BCF940F20731322000F0B7F940F235
:101880000531332000F0B2F90421342000F0AEF924
:1018900040F20241352000F0A9F940F207713620EC
:1018A00000F0A4F940F20351372000F09FF941F213
:1018B0000551382000F09AF941F20551392000F025
:1018C00095F90A2000F052F90121072000F08EF965
:1018D0000A2000F04BF92121072000F087F923218D
:1018E000072000F083F90A2000F040F93321072097
:1018F00000F07CF90A2000F039F940F2331107209A
:1019000000F074F917B000BD00B587B001210803DD
:10191000FEF7D2FEE020ADF8040003208DF80600AB
:1019200018208DF8070001A93B48FEF78DFF102015
:10193000ADF8040003208DF8060010208DF8070094
:1019400001A93548FEF780FF10213348FFF727F83B
:101950000020ADF808004FF48270ADF80A000020B6
:10196000ADF80C000220ADF80E000120ADF810001B
:101970004002ADF812001820ADF814000020ADF8B8
:1019800016000720ADF8180002A92448FFF7D6FC7E
:1019900001212248FFF777FD07B000BD08B50120FF
:1019A000ADF8000000208DF8030002208DF8020041
:1019B00069461B48FEF748FF0A201A4908604FF4A1
:1019C000F01018492C3908600846006840F0010002
:1019D00008600846006840F00800086000BF114831
:1019E0002C38006800F008000828F8D00D482C3882
:1019F000006840F004000B492C39086000BF09481A
:101A00002C3811E02804004000100240001401406E
:101A100000180140FFFF0F000008014000300140A6
:101A20000010014034240140006800F00800042840
:101A3000E5D008BD08B501210846FEF73DFE4FF48C
:101A4000C060FFF759FB17208DF800000F208DF8BC
:101A500001008DF8020001208DF803006846FFF7B1
:101A600050FB08BD4FF0E021096921F004014FF05F
:101A7000E0221161C21700EB5272C2F3C702114B90
:101A80001A701946097801EB4102C2EBC1114FF6F9
:101A9000FF7202EAC1010C4A118070471CB5062191
:101AA0000120FEF7E5FF4020009000208DF80400A3
:101AB0000C208DF8050001208DF806006846FFF720
:101AC00097FB1CBD2E0000203000002010B54020E8
:101AD000FFF7F4FB58B140212048FEF746FF2049AC
:101AE000087001201F4908704020FFF7F8FB10BD67
:101AF00008B5FFF7ABFDFFF707FFFFF74FFFFFF755
:101B000099FFFFF7CBFF4820FFF7ACFF00215020E3
:101B100000F06CF8EF21512000F068F8002152200D
:101B200000F064F840F23F11532000F05FF800200D
:101B3000F02302464FF4A071009000F034F900F059
:101B4000FDFF094801F052FE06E006480078012832
:101B500002D1054801F082FBF7E70000000C0140CC
:101B6000280000202A0000205C000020002100E066
:101B7000491C8142FCD3704701461A4A12884A43E5
:101B80004FF0E0235A6100229A6101221A6100BFDE
:101B90004FF0E022106910F0010F02D010F4803FE6
:101BA000F6D000224FF0E0231A619A617047014697
:101BB0000D4A12784A434FF0E0235A6100229A619D
:101BC00001221A6100BF4FF0E022106910F0010FEE
:101BD00002D010F4803FF6D000224FF0E0231A61CB
:101BE0009A617047300000202E0000204FF0C04363
:101BF0001880034B19807047014A1080704700001D
:101C0000000002602DE9F05F04460D461746984635
:101C1000DDF828B0B4F5A07F01DAE82D01DDBDE8DC
:101C2000F09F29462020FFF7E1FF05F10B0121205D
:101C3000FFF7DCFF29465020FFF7D8FF05F10B0125
:101C40005120FFF7D3FF21465220FFF7CFFF611D40
:101C50005320FFF7CBFF29462020FFF7C7FF21467F
:101C60002120FFF7C3FF22204FF0C0410880A7F1D9
:101C70002000C7B200261EE007EB4700AB4901EB8E
:101C8000800010F806904FF0000A0FE019F0010FE5
:101C900003D04046FFF7B0FF02E05846FFF7ACFF25
:101CA0004FEA69090AF1010000F0FF0ABAF1060FD4
:101CB000ECDB701CC6B20C2EDEDB00215020FFF7DF
:101CC00095FFEF215120FFF791FF00215220FFF7F0
:101CD0008DFF40F23F115320FFF788FF00BF9EE7C2
:101CE0002DE9F84305460E4614461F46DDF82080D0
:101CF00016E0B5F5A07F03DB002506F10C0086B2E7
:101D0000E82E02DD002005460646CDF80080227848
:101D10003B4631462846FFF775FFA81D85B2641C77
:101D200020780028E5D1BDE8F88370B504460E465A
:101D3000154631462020FFF759FF21462120FFF7A5
:101D400055FF22204FF0C04108802846FFF754FF7E
:101D500070BD70B5044625881FE0A68818E0607A3B
:101D600096FBF0F100FB116028B1207A95FBF0F1B1
:101D700000FB115028B9628931462846FFF7D5FF8C
:101D800004E0A28931462846FFF7CFFF701C86B2D7
:101D9000E088B042E3DA681C85B26088A842DCDAE9
:101DA0000120E07370BD2DE9F04704460D4616464C
:101DB0001F46DDF8209021462020FFF717FF31460F
:101DC0002120FFF713FF22204FF0C0410880A046DA
:101DD00004E04846FFF710FF08F1010805FB07F093
:101DE0004045F6DA4FF00008BDE8F0872DE9F04FE6
:101DF00085B006468A4617469B4604960397BAEB7B
:101E0000060002D44FF0010801E04FF0FF38BBEBB1
:101E1000070002D44FF0010901E04FF0FF39B8F19B
:101E2000010F02D1AAEB060401E0A6EB0A04B9F106
:101E3000010F02D1ABEB070501E0A7EB0B05A542B3
:101E400005DD20462C4605460121029101E00020D7
:101E50000290C4EB450001900020009027E00E9A0C
:101E6000DDE90310FFF761FF0DE0029818B1049857
:101E70004044049002E003984844039002210198F2
:101E800001FB1400019001980028EEDA029818B1C5
:101E900003984844039002E00498404404900221CF
:101EA000019801FB050001900098401C00900098EB
:101EB000A042D4DB0020009005B0BDE8F08F2DE9F2
:101EC000F05F05460E4614469946204604EBD07155
:101ED000A5EB61018FB204EBD07105EB61011FFA34
:101EE00081FA04EBD071A6EB61011FFA81F804EBD3
:101EF000D07106EB61011FFA81FB06E04A463146CC
:101F00003846FFF712FF781C87B25745F6DD08E028
:101F10004A4641462846FFF708FF08F101001FFA2C
:101F200080F8D845F4DDBDE8F09F0000B45000080B
:101F300070B54FF40000F94908600520FFF737FE3F
:101F4000D02001F045FA0520FFF731FE002001F016
:101F500057FA04462402002001F052FA04430520F7
:101F6000FFF725FE8020ED490860E408EC48046096
:101F70000F20FFF71CFE4FF40000E8490860052021
:101F8000FFF715FE902001F023FA0520FFF70FFE62
:101F9000002001F035FA05462D02002001F030FA4C
:101FA00005430520FFF703FEED08DE4805608020AD
:101FB000DA490860DB480068C0F58050D9490860FC
:101FC0000846006864280FD9D548006864280BD9F2
:101FD00008460068B0F57A6F06D2D1480068B0F5BF
:101FE0007A6F01D2012070BD0020FCE72DE9F04F8F
:101FF0008FB000200E908246002500248346CA48F8
:10200000C07C10B93220FFF7B7FD4021C34810381B
:10201000FEF7ABFCC54908700EE0FFF789FF58B129
:10202000C048008807A921F81500BD48008802A90A
:1020300021F81500681CC5B2BC48007808B90A2D03
:10204000EBDB0A2D7ED100BF4FF0000B002419E01E
:1020500007A830F8141007AA601C32F8100081425B
:102060000EDD07A9601C31F810A007A830F8141085
:10207000601C22F8101007A820F814A04FF0010BE4
:10208000601CC4B2681EA042E2DCBBF1000FDBD1D1
:1020900000BF4FF0000B002419E002A830F8141024
:1020A00002AA601C32F8100081420EDD02A9601CF9
:1020B00031F810A002A830F81410601C22F810109B
:1020C00002A820F814A04FF0010B601CC4B2681ED7
:1020D000A042E2DCBBF1000FDBD1BDF82260BDF80D
:1020E0002470BDF80E80BDF81090BE4203DD07F1EC
:1020F0001E00864243DCB74203DD06F11E00874224
:102100003DDCC84503DD09F11E00804537DCC145D3
:1021100003DD08F11E00814531DCBDF82200BDF869
:102120002410084400EBD0710190481002F030FFF9
:102130000D90BDF80E00BDF81010084400EBD071F2
:10214000019000E023E0481002F022FF0C904FF0D5
:102150008B410D9802F034FF11D84FF08B410C9851
:1021600002F02EFF0BD80D9802F0F2FE6D490860C8
:102170000C9802F0EDFE6A49086001200E904021A3
:1021800066481038FEF7F1FB6849087000250E9884
:1021900018B101200FB0BDE8F08F0020FAE7644AC3
:1021A00012684243634B1B6803FB0122624B1B68AE
:1021B0001A44624BB2FBF3F2614B1A60614A126837
:1021C0004243614B1B6803FB0122604B1B681A44AE
:1021D0005A4BB2FBF3F25E4B1A60704700B5ADB0DC
:1021E00000202C9000BF00BF00BF00BF00BF00BF99
:1021F0002020ADF850007820ADF852004FF4784020
:102200001590A020ADF84800D820ADF84A004FF452
:10221000FC6013904FF49070ADF840001820ADF8BA
:1022200042004FF6E070119015980F90BDF85200E3
:102230000E90BDF850000D901422DDE90E13FFF74B
:102240003EFE45E043480078012841D14FF4AA7092
:10225000FFF792FC402131481038FEF786FB3349E6
:1022600008700846007878BB28E00A20FFF79FFC3A
:10227000FFF7BCFE0A20FFF79AFC2A4800681B9073
:1022800027480068189034A13548189B1B9A02F023
:102290006FF84FF29E704FF47843314A5A21009004
:1022A0002020FFF71DFD40211C481038FEF75DFB84
:1022B0001E49087000202749087003E01B48007879
:1022C0000028D2D000BF04E0FFE7002021490870B9
:1022D000B8E700BF00201F49087013980F90BDF8A1
:1022E0004A000E90BDF848000D901422DDE90E134F
:1022F000FFF7E5FD6AE017480078012866D14FF442
:10230000AA70FFF739FC402104481038FEF72DFB76
:102310000649087008460078F0BB4EE0100C0140FA
:102320003800002034000020740000202800002025
:1023300044000020480000204C00002040420F00D4
:102340003C000020500000205400002058000020D5
:10235000400000202A000020253464202534640039
:102360006A0000200A20FFF722FCFFF73FFE0A2048
:10237000FFF71DFCFE4800681A90FE4800681790A1
:10238000AFF22C01FC48179B1A9A01F0F1FF4FF2B3
:102390009E704FF4FC6300E015E0F74AC8210090FE
:1023A000B420FFF79DFC4021F448FEF7DEFAF44923
:1023B00008700020F349087003E0F1480078002815
:1023C000D0D000BF03E00020EE49087093E700BFC3
:1023D0000020EC49087011980F90BDF842000E9053
:1023E000BDF840000D901422DDE90E13FFF767FDE4
:1023F00045E0E4480078012841D14FF4AA70FFF786
:10240000BBFB4021DD48FEF7B0FADD490870084605
:10241000007880BB29E00A20FFF7C9FBFFF7E6FD43
:102420000A20FFF7C4FBD24800681990D148006821
:102430001690AFF2DC01D048169B199A01F098FF74
:102440004FF29E701F23CC4A28210090F020FFF706
:1024500047FC4021C948FEF788FAC94908700020A6
:10246000C849087001202C9003E0C5480078002876
:10247000D1D000BF04E0FFE70020C2490870B8E7F0
:1024800000BF2C9801287CD1179802F05AFBCDE9A7
:102490000601189802F055FBCDE90401DDE9062399
:1024A00002F060FCCDE90A01BDF84000079002F09F
:1024B00048FBCDE90801DDE90A2302F055FBCDE92F
:1024C0000E01189802F03DFBCDE90201169802F0CA
:1024D00038FBCDE90001DDE9022302F043FCCDE940
:1024E0000601BDF84800039002F02BFBCDE9040182
:1024F000DDE9062302F038FBCDE90A01169802F067
:1025000020FBCDE90201179802F01BFBCDE9000189
:10251000DDE9022302F026FCCDE90601BDF85000FA
:10252000039002F00EFBCDE90401DDE9062302F081
:102530001BFBCDE90801DDE90A2302F0D3F8CDE960
:102540000C01DDE90E2302F0CDF8CDE92A01179840
:1025500002F0F7FACDE90601189802F0F2FACDE997
:102560000401DDE9062302F0FDFBCDE90A0119981B
:1025700002F0E7FACDE90801DDE90A2302F0F4FAF6
:1025800000E0D9E2CDE90E01189802F0DAFACDE9BF
:102590000201169802F0D5FACDE90001DDE9022327
:1025A00002F0E0FBCDE906011A9802F0CAFACDE983
:1025B0000401DDE9062302F0D7FACDE90A011698F5
:1025C00002F0BFFACDE90201179802F0BAFACDE99C
:1025D0000001DDE9022302F0C5FBCDE906011B98ED
:1025E00002F0AFFACDE90401DDE9062302F0BCFAFE
:1025F000CDE90801DDE90A2302F074F8CDE90C0108
:10260000DDE90E2302F06EF8CDE92801DDE928238B
:10261000DDE92A0102F00EF9CDE9260100225A4B2C
:10262000DDE9260102F0A0FACDE90E0102F05AFA26
:10263000564908600846026855A14F4801F098FEC7
:102640004FF29E704FF6E0734B4A782100908C2039
:10265000FFF746FBBDF840000B9002F072FACDE99F
:102660000E01BDF84800079002F06BFACDE90A01AF
:102670001A9802F066FACDE90401199802F061FA9D
:10268000CDE90201DDE9042302F06CFBCDE906018E
:10269000DDE9262302F068FACDE90801DDE90A2325
:1026A00002F020F8CDE90C01DDE90E2302F05AFB1F
:1026B000CDE92A01169802F044FACDE90E011798E7
:1026C00002F03FFACDE90C01DDE90E2302F04AFBEE
:1026D000CDE92801DDE92823DDE92A0102F0AAF885
:1026E000CDE924010022284BDDE9240102F03CFA67
:1026F000CDE90E0102F0F6F92749086008460268A4
:1027000026A11D4801F034FE4FF29E704FF6E07393
:10271000194A822100908C20FFF7E2FA169802F005
:1027200010FACDE90A01DDE9242302F01DFACDE912
:102730000E01199802F005FACDE90601DDE926231C
:1027400002F012FACDE90A01BDF84000079002F04C
:10275000F8F9CDE90801DDE90A2302F003FBCDE930
:102760000C01DDE90E2302F0FDFACDE9220119E0AA
:1027700034000020380000206A000020000C0140D6
:10278000280000202A00002080842E4144000020E0
:10279000413D25346400000048000020423D2534BE
:1027A000640000000022FE4BDDE9220102F0DCF9AA
:1027B000CDE90E0102F096F9FA4908600846026870
:1027C000F9A1FB4801F0D4FD4FF29E704FF6E07383
:1027D000F74A8C2100900846FFF782FA179802F01A
:1027E000B0F9CDE90601189802F0ABF9CDE9040182
:1027F000DDE9062302F0B6FACDE90A01BDF8420090
:10280000079002F09EF9CDE90801DDE90A2302F004
:10281000ABF9CDE90E01189802F093F9CDE9020168
:10282000169802F08EF9CDE90001DDE9022302F0ED
:1028300099FACDE90601BDF84A00039002F081F94A
:10284000CDE90401DDE9062302F08EF9CDE90A01A4
:10285000169802F076F9CDE90201179802F071F9A5
:10286000CDE90001DDE9022302F07CFACDE90601A1
:10287000BDF85200039002F064F9CDE90401DDE9EE
:10288000062302F071F9CDE90801DDE90A2301F020
:1028900029FFCDE90C01DDE90E2301F023FFCDE98D
:1028A0002A01179802F04DF9CDE90601189802F0B7
:1028B00048F9CDE90401DDE9062302F053FACDE938
:1028C0000A01199802F03DF9CDE90801DDE90A2372
:1028D00002F04AF9CDE90E01189802F032F9CDE97B
:1028E0000201169802F02DF9CDE90001DDE902237D
:1028F00002F038FACDE906011A9802F022F9CDE982
:102900000401DDE9062302F02FF9CDE90A0116984A
:1029100002F017F9CDE90201179802F012F9CDE99A
:102920000001DDE9022302F01DFACDE906011B9842
:1029300002F007F9CDE90401DDE9062302F014F9FC
:10294000CDE90801DDE90A2301F0CCFECDE90C0157
:10295000DDE90E2301F0C6FECDE92801DDE92823DB
:10296000DDE92A0101F066FFCDE9200100228C4B50
:10297000DDE9200102F0F8F8CDE90E0102F0B2F82D
:102980008C490860084602688BA1894801F0F0FC78
:102990004FF29E704FF6E073854A962100908C208E
:1029A000FFF79EF9BDF842000B9002F0CAF8CDE99E
:1029B0000E01BDF84A00079002F0C3F8CDE90A0104
:1029C0001A9802F0BEF8CDE90401199802F0B9F89E
:1029D000CDE90201DDE9042302F0C4F9CDE90601E5
:1029E000DDE9202302F0C0F8CDE90801DDE90A2382
:1029F00001F078FECDE90C01DDE90E2302F0B2F919
:102A0000CDE92A01169802F09CF8CDE90E0117983D
:102A100002F097F8CDE90C01DDE90E2302F0A2F9EE
:102A2000CDE92801DDE92823DDE92A0101F002FFD3
:102A3000CDE91E0100225A4BDDE91E0102F094F897
:102A4000CDE90E0102F04EF85D49086008460268C3
:102A50005CA1574801F08CFC4FF29E704FF6E0737A
:102A6000534AA02100908C20FFF73AF9169802F003
:102A700068F8CDE90A01DDE91E2302F075F8CDE919
:102A80000E01199802F05DF8CDE90601DDE9202379
:102A900002F06AF8CDE90A01BDF84200079002F0A1
:102AA00050F8CDE90801DDE90A2302F05BF9CDE930
:102AB0000C01DDE90E2302F055F9CDE91C010022DD
:102AC000374BDDE91C0102F04FF8CDE90E0102F0B1
:102AD00009F83E490860084602683DA1344801F003
:102AE00047FC4FF29E704FF6E073314AAA210090E6
:102AF0008C20FFF7F5F8002000F09EFC00213648FE
:102B0000006800F01BFD04213448006800F016FD49
:102B100008212448006800F011FD122125480068B2
:102B200000F00CFD16212648006800F007FD20216A
:102B30002648006800F002FD2DB000BD10B5002051
:102B400000F011FD24490860042000F00CFD234929
:102B50000860082000F007FD12490860122000F00C
:102B600002FD14490860162000F0FDFC14490860BD
:102B7000202000F0F8FC1549086010BD01460888C7
:102B8000174A1268904235DA4888154A126890420E
:102B900030DD8888134A126890422BDAC88823E017
:102BA00080842E414C000020433D25346400000009
:102BB0006A00002050000020443D253464000000DD
:102BC00054000020453D25346400000058000020DA
:102BD000463D2534640000004400002048000020E9
:102BE0003C00002040000020FE4A1268904201DDB7
:102BF000012070470020FCE7F8B505460E46144654
:102C0000E87A012804D002280BD003281BD111E058
:102C10003346F5A2322140F21D100094FFF760F810
:102C200011E03346F1A2322140F21D100094FFF76B
:102C300057F808E03346EEA2322140F21D1000940E
:102C4000FFF74EF800BF00BFA87A012804D0022881
:102C50000BD003281BD111E03346E6A25A2140F2E3
:102C60001D100094FFF73CF811E03346E2A25A2110
:102C700040F21D100094FFF733F808E03346DFA25E
:102C80005A2140F21D100094FFF72AF800BF00BF40
:102C9000F8BD38B50446DA48807C01287ED1D94891
:102CA000FFF76CFF48B1207B022806DAD448807C0D
:102CB000012802D1207B401C2073D348FFF75EFF20
:102CC00048B1207B012806DDCD48807C012802D157
:102CD000207B401E2073207B012802D002283AD19D
:102CE0003AE0CA484089C94A009093891189D0883E
:102CF000C7A2FEF7F5FFC8484089C74A00909389EC
:102D00001189D088C5A2FEF7EBFF2278AFF6B41187
:102D1000C44801F02DFB4FF29E700023C14A2821C8
:102D2000009040F21D10FEF7DBFF6278AFF6D41181
:102D3000BC4801F01DFB4FF29E700023B94A5021A0
:102D4000009040F21D10FEF7CBFF4FF29E72002163
:102D50002046FFF751FF4CE0AC484089AB4A009059
:102D600093891189D088B0A2FEF7BAFFAA4840899A
:102D7000A94A009093891189D088ADA2FEF7B0FFCF
:102D8000AD48027AAFF62C21A64801F0F1FA4FF2D5
:102D90009E700023A34A2821009000E02AE040F220
:102DA0001D10FEF79DFFA448427AAFF650219D48C2
:102DB00001F0DEFA4FF29E7000239A4A50210090F3
:102DC00040F21D10FEF78CFF4FF29E7000239BA275
:102DD0003221009040F21D10FEF782FF4FF29E70EC
:102DE000002396A25A21009040F21D10FEF778FFB2
:102DF00000BF00BF38BD38B504468148807C01283B
:102E00007DD1207B01287ED1804880897F4A009037
:102E100053891189D0887EA2FEF762FF7E4880899F
:102E20007D4A009053891189D0887CA2FEF758FF13
:102E30007448FFF7A3FEA8B12078032812DA20789F
:102E4000401C20702278AFF6EC21764801F090FA11
:102E500000204FF29E73734A2821009040F21D100B
:102E6000FEF73EFF6848FFF789FEA8B120780128E9
:102E700012DD2078401E20702278AFF6203169489C
:102E800001F076FA00204FF29E73664A28210090E6
:102E900040F21D10FEF724FF6948FFF76FFEA8B14E
:102EA0006078032812DA6078401C60706278AFF6B0
:102EB00054315C4801F05CFA00204FF29E73594A8D
:102EC0005021009040F21D10FEF70AFF5D48FFF709
:102ED00055FEA8B16078012815DD6078401E60704D
:102EE0006278AFF688314F4801F042FA00204FF285
:102EF0009E734C4A5021009040F21D1001E06FE09B
:102F000001E0FEF7EDFE207B022869D13F48808971
:102F10003E4A009053891189D08843A2FEF7E0FE13
:102F20003D4880893C4A009053891189D08840A24D
:102F3000FEF7D6FE3348FFF721FE08B33E48007A7D
:102F4000401C3D4908720846007A3F4908723A48D9
:102F5000007A3E4908723848027A3DA1314801F0B2
:102F600007FA00204FF29E732E4A2821009040F26B
:102F70001D10FEF7B5FE3048FEF7EBFE01F033F909
:102F80002148FFF7FBFD08B32B48007A401E2A4971
:102F900008720846007A2C4908722748007A2B49A3
:102FA00008722548027A2AA11E4801F0E1F90020A2
:102FB0004FF29E731B4A2821009040F21D10FEF72D
:102FC0008FFE1D48FEF7C5FE01F00DF91C48FFF706
:102FD000D5FD30B11848407A401C1749487239E095
:102FE0007DE055E040000020757300006D73000027
:102FF000207300006D76000020760000327600001D
:10300000A0000020BE010020A8010020B602002080
:10301000742F646976000000A6020020762F646990
:10302000760000006A000020672E737458000000CC
:10303000672E7374590000000002002070780000B1
:10304000EA010020D4010020120200202402002006
:10305000253364000846407ACC494872CC48407A0F
:10306000CC494872CA48427AAFF21C01CA4801F002
:103070007FF900204FF29E73C74A5021009040F222
:103080001D10FEF72DFEC248FEF763FE01F0ABF8FF
:10309000C248FFF773FD10B3BD48407A401EBC49DB
:1030A00048720846407AB9494872B948407AB949E5
:1030B0004872B748427AAFF26801B74801F058F950
:1030C00000204FF29E73B44A5021009040F21D1030
:1030D000FEF706FEAE48FEF73CFE01F084F838BD70
:1030E00038B50446AE48807C01287DD1207B01287C
:1030F0004DD12278AFF2A801A74801F039F94FF27B
:103100009E700023A44A2821009040F21D10FEF773
:10311000E7FD6278AFF2C8019F4801F029F94FF24C
:103120009E7000239C4A5021009040F21D10FEF733
:10313000D7FD9C48FFF722FD28B1E07A032802DA88
:10314000E07A401CE0729848FFF718FD28B1E07A59
:10315000012802DDE07A401EE0729448FFF70EFD80
:1031600028B1A07A032802DAA07A401CA0728B480A
:10317000FFF704FD28B1A07A012802DDA07A401EE5
:10318000A07200224FF29E712046FFF735FD207B92
:10319000022839D17E48027AAFF24C117E4801F004
:1031A000E7F84FF29E7000237B4A2821009040F2FE
:1031B0001D10FEF795FD7648427AAFF26C11764805
:1031C00001F0D6F84FF29E700023734A5021009010
:1031D00040F21D10FEF784FD00204FF29E73AFF207
:1031E000A4123221009000E00EE040F21D10FEF724
:1031F00077FD00204FF29E73AFF2C0125A2100906B
:1032000040F21D10FEF76CFD38BD38B50446644829
:10321000807C012821D1207B012805D14FF29E72AC
:1032200000212046FFF7E8FC207B022815D14FF251
:103230009E700023AFF2FC123221009040F21D106C
:10324000FEF74EFD4FF29E700023AFF210225A217E
:10325000009040F21D10FEF743FD38BD70B50446E6
:1032600001251420FEF788FC40215148FDF77DFB25
:103270005049087008460078002870D17CE0002D85
:103280007AD0FEF7B3FE4C4801684C480068FEF760
:1032900086FF4B480068B0F58F7F0FDB4948006818
:1032A0007D280BDB47480068892807DC607B401CD1
:1032B0006073607B052801D100206073414800687D
:1032C0001A2816DC3E4800682D2812DB3E48807C18
:1032D000012806D100203C4988742C48FEF739FDAE
:1032E00007E03948807C20B901203749887400F014
:1032F00072FD344800681A281BDD31480068B0F5BB
:103300008D7F16DD2F4800686A2812DC2448807CF7
:10331000012806D10020224988741E48FEF719FDB5
:1033200007E01F48807C20B901201D49887400F007
:103330005AFF607B012806D0022808D003280AD053
:10334000042811D10CE02046FFF7A3FC0CE0204636
:10335000FFF751FD08E02046FFF7C2FE04E010E051
:103360002046FFF752FF00BF00BF00254021104854
:10337000FDF7FBFA0F4908700E48007800283FF46B
:103380007EAF00201149087070BD000012020020BD
:1033900000020020240200206A000020D401002046
:1033A000A0000020BE010020A8010020EA010020AA
:1033B000000C0140280000203800002034000020CC
:1033C0003C00002040000020B60000202A00002021
:1033D00010B5044600BF02216E48FEF7D8F8002859
:1033E000F9D021466B48FEF77FF800BF01216948FC
:1033F000FEF7CDF80028F9D06648FEF777F810BD43
:1034000010B504462046FFF7E3FF10BD10B50024B9
:1034100010216148FDF7C5FA0520FFF7F1FF00BF55
:10342000A520FFF7EDFFC4B214F0010FF8D1102171
:103430005948FDF7B4FA10BD10B50446FFF7E6FF92
:1034400010215548FDF7ADFA0620FFF7D9FF1021EE
:103450005148FDF7A4FAFFF7D9FF10214E48FDF7B8
:10346000A0FAD820FFF7CCFF0020FFF7C9FF200A01
:10347000FFF7C6FFE0B2FFF7C3FF10214648FDF794
:103480008EFA10BD2DE9F04106460C461746FFF7AF
:10349000BDFF10214048FDF784FA0620FFF7B0FF7A
:1034A00010213D48FDF77BFAFFF7B0FF10213A48A5
:1034B000FDF777FA0220FFF7A3FFC4F30740FFF7F9
:1034C0009FFFC4F30720FFF79BFFE0B2FFF798FFD1
:1034D000002503E0705DFFF793FF6D1CBD42F9D33B
:1034E00010212D48FDF75BFABDE8F0812DE9F04190
:1034F00006460C461746FFF789FF10212648FDF7C0
:1035000050FA0320FFF77CFFC4F30740FFF778FF72
:10351000C4F30720FFF774FFE0B2FFF771FF002547
:1035200004E00020FFF76CFF70556D1CBD42F8D31E
:1035300010211948FDF733FABDE8F08138B504468B
:103540000D46200E8DF80000200C8DF80100200A99
:103550008DF80200E0B28DF8030004222946684687
:10356000FFF790FF38BD38B504460422214668466F
:10357000FFF7BCFF9DF8000000069DF8011000EB6E
:1035800001409DF8021000EB01209DF80310451842
:10359000284638BD00300140000801402DE9F047C1
:1035A00008AC94E8F010DDE90D8901804280838049
:1035B000C48005724681878180F80EC0A0F8108013
:1035C0004FF0010A80F812A04FF0000A80F813A013
:1035D00080F81490BDE8F0872DE9F04307AC94E83B
:1035E000F010DDF83080018042808380C480057255
:1035F00046724781A0F80CC04FF0010980F80E9088
:103600004FF0000980F80F9080F81080BDE8F0833B
:10361000F8B5044660882188884203DA66882088E5
:1036200060802680E088A188884203DAE688A08846
:10363000E080A680207A08B9012000E00020A17B6C
:1036400009B9012100E00021084202D00020E07405
:10365000F8BDA07C10B90020E074F9E7207A0128B9
:1036600000D100E00020A17B09B9012100E0002188
:1036700008422BD0002526E060890090A7887B199E
:103680007A1961882088FEF7B1FB60890090E7888D
:103690007B1B7A1B61882088FEF7A8FB608900905D
:1036A000E388A288278879197819FEF79FFB60893B
:1036B0000090E7887B1CA2886788791B781BFEF73F
:1036C00095FB681C85B2A089A842D5DC207A08B990
:1036D000012000E00020A17B012900D100E00021B1
:1036E000084212D0A5880DE0268806E0228A2946E5
:1036F0003046FEF71AFB701C86B26088B042F5DCDB
:10370000681C85B2E088A842EEDC207A012800D14E
:1037100000E00020A17B012900D100E00021084247
:1037200048D0002526E060890090A7887B197A1987
:1037300061882088FEF75AFB60890090E7887B1B30
:103740007A1B61882088FEF751FB60890090E3882E
:10375000A288278879197819FEF748FB60890090BC
:10376000E7887B1CA2886788791B781BFEF73EFBE5
:10377000681C85B2A089A842D5DCA088A18908442C
:1037800085B212E02088A189084486B206E0228A28
:1037900029463046FEF7C9FA701C86B26088A189B6
:1037A000401AB042F3DA681C85B2E088A189401A59
:1037B000A842E7DA0120E07400BF49E770B5DDE90F
:1037C00004451E7806705E7846709E788670DE78B6
:1037D000C6701E7906715E794671C180028144818E
:1037E0008581012686730026C67370BD01B588B039
:1037F000012000211F220A23CDE90232CDE9041065
:10380000EF21CDE900131A2340F21B120021FE48DC
:10381000FFF7E2FE012108980171FB48017A089840
:10382000417103210898817101210898C171F648FE
:10383000417A089801720321089841724FF6FF708F
:10384000F02300224FF4A07100901046FEF7ABFA6F
:1038500001204FF29E710390CDE9040106900020F3
:1038600001211A220346CDE90021029040F23F12C5
:103870000146E648FFF792FEE448FFF7C9FE012043
:103880004FF29E710390CDE90401069000200121C2
:10389000EF221A23CDE90021029040F23F1240F2BC
:1038A0001B11DB48FFF77AFED948FFF7B1FE4FF254
:1038B0009E700023D7A2022100900846FEF710FA5E
:1038C0004FF29E700023D5A20D2100900220FEF73A
:1038D00007FA00201A2302462D2100900846FEF721
:1038E00085FA4FF29E700023CEA2022100902F2075
:1038F000FEF7F6F94FF29E700023CCA20D21009046
:103900003C20FEF7EDF900201A2302465E210090CC
:103910000846FEF76BFA4FF29E700023C5A2022103
:1039200000906B20FEF7DCF94FF29E700023C2A2DC
:103930000D2100906B20FEF7D3F900201A230246D8
:103940008F2100900846FEF751FA4FF29E70002337
:10395000BBA2022100909D20FEF7C2F94FF29E709B
:103960000023B5A20D2100909D20FEF7B9F900209B
:103970001A230246C02100900846FEF737FA4FF29C
:103980009E700023B0A202210090D220FEF7A8F979
:103990004FF29E700023AEA20D210090D220FEF7C0
:1039A0009FF900201A230246F12100900846FEF7F5
:1039B0001DFA4FF29E700023A6A202210090F4206F
:1039C000FEF78EF94FF29E704FF478439AA20D21C4
:1039D0000090F420FEF784F94FF29E7000239FA21E
:1039E0000221009040F21D10FEF77AF94FF29E700E
:1039F0004FF4784396A20D21009040F21D10FEF77F
:103A00006FF94FF29E70002196A31E22CDE900109F
:103A100040F21D119548FFF7D1FE08984079024603
:103A200093A10790934800F0A3FC4FF29E700021F1
:103A3000904B2822CDE9001040F21D118E48FFF76F
:103A4000BDFE4FF29E7000218CA33222CDE9001002
:103A500040F21D118A48FFF7B1FE4FF29E7000211F
:103A600088A34622CDE9001040F21D118748FFF7D8
:103A7000A5FE0898007A02467DA107907D4800F0D7
:103A800077FC4FF29E7000217A4B5022CDE9001056
:103A900040F21D117E48FFF791FE4FF29E7000210B
:103AA0007CA35A22CDE9001040F21D117A48FFF79D
:103AB00085FE00204FF6E07178A37D22CDE900104D
:103AC0004FF48F717748FFF779FE00204FF6A06121
:103AD00075A39622CDE900104FF48F717448FFF75B
:103AE0006DFE00204FF4FC6172A3AF22CDE90010FF
:103AF0004FF48F717148FFF761FE4FF29E70002105
:103B00006FA3C822CDE900104FF48F716E48FFF704
:103B100055FE4FF29E7000216CA3E122CDE900100A
:103B20004FF48F716B48FFF749FE50488089009031
:103B30004E48408907904D48008906904B48C08800
:103B400005904A4ADDE90613FEF7CAF84A4880891B
:103B500000904948408907904748008906904648A8
:103B6000C0880590444ADDE90613FEF7B9F84448D9
:103B7000808900904248408907904148008906901A
:103B80003F48C08805903E4ADDE90613FEF7A8F8D5
:103B90003E48808900903D48408907903B48008915
:103BA00006903A48C0880590384ADDE90613FEF7CA
:103BB00097F8374880890090354840890790344805
:103BC000008906903248C0880590314ADDE9061325
:103BD000FEF786F83048808900902F48408907908A
:103BE0002D48008906902C48C08805902A4ADDE9B6
:103BF0000613FEF775F82B48808900902948408904
:103C000007902848008967E0000200207400002027
:103C10008A0000204D6F64653A00000045712E74E3
:103C2000696D65002020426567696E003130303073
:103C300000000000456E64003132303000000000AA
:103C400053746570000000007174792E000000004C
:103C50003130000052504D6D633200004672657184
:103C600000000000742F646976000000B602002096
:103C7000253364006A000020C60200202073000083
:103C800036020020762F646976000000A60200202C
:103C9000D602002032760000460200204D656E7587
:103CA000000000006602002043616C6320000000F9
:103CB0005602002053544152540000007602002066
:103CC00053544550000000009602002053544F50BA
:103CD00000000000860200200690FE48C088059083
:103CE000FC4ADDE90613FDF7FBFFFB4880890090E5
:103CF000F94840890790F84800890690F648C0883E
:103D00000590F54ADDE90613FDF7EAFFF3488089DF
:103D10000090F24840890790F04800890690EF48EB
:103D2000C0880590ED4ADDE90613FDF7D9FFEC48A0
:103D300080890090EA4840890790E9480089069008
:103D4000E748C0880590E64ADDE90613FDF7C8FF9D
:103D5000E44880890090E34840890790E148008961
:103D60000690E048C0880590DE4ADDE90613FDF7BD
:103D7000B7FFDD48FDF7EDFF0123DB488089DA4915
:103D80004989D94A527ACDE90403CDE90221D648BE
:103D9000007A2E211A23F122CDE900102D21D348DB
:103DA000FFF71AFC0123D04881894089CE4A527A14
:103DB000CDE90413CDE90220CB48007A6A211A2309
:103DC00040F21B12CDE9001040F20511C848FFF780
:103DD00003FC09B000BD00B589B001204FF4FC61BF
:103DE0000390CDE90401069000202E22CDE90020A9
:103DF0001A23162201460290BE48FFF7CFFBBD48AA
:103E0000FFF706FC4FF4FC600090BA488088001D64
:103E100080B20890B7480088093080B200232D2274
:103E200007900899FDF7EEFE01204FF478410390CA
:103E3000CDE90401069000202E22CDE900201A23AE
:103E40002D2216210290AC48FFF7A8FBAA48FFF7E5
:103E5000DFFB4FF478400090A7488088001D80B2B7
:103E60000890A5480088093080B200232B220790D3
:103E70000899FDF7C7FE01204FF4FC610390CDE9DE
:103E80000401069000202E22CDE9002002909A48DD
:103E90004088193080B20890974840881A230790CC
:103EA00001469648089AFFF779FB9448FFF7B0FB64
:103EB0004FF4FC60009091488088001D80B208900B
:103EC0008E480088093080B200232D22079008997F
:103ED000FDF798FE01204FF478410390CDE90401ED
:103EE000069000202E22CDE90020029083484088D1
:103EF000183080B20890814840881A230790014604
:103F00007F48089AFFF74AFB7D48FFF781FB4FF493
:103F1000784000907A488088001D80B208907848E8
:103F20000088093080B200232B2207900899FDF702
:103F300069FE01204FF4FC610390CDE90401069075
:103F400000202E22CDE9002002906D4840881930D3
:103F500080B208906A4840881A2307900146694851
:103F6000089AFFF71BFB6748FFF752FB4FF4FC6012
:103F7000009064488088001D80B2089061480088E5
:103F8000093080B200232D2207900899FDF73AFEF0
:103F900001204FF478410390CDE904010690002000
:103FA0002E22CDE90020029056484088183080B279
:103FB0000890544840881A23079001465248089AAE
:103FC000FFF7ECFA5048FFF723FB4FF478400090DE
:103FD0004D488088001D80B208904B480088093009
:103FE00080B200232B2207900899FDF70BFE0120D9
:103FF0004FF4FC610390CDE90401069000202E22CD
:10400000CDE90020029040484088193080B20890E5
:104010003D4840881A23079001463C48089AFFF71C
:10402000BDFA3A48FFF7F4FA4FF4FC6000903748C5
:104030008088001D80B2089034480088093080B222
:1040400000232D2207900899FDF7DCFD01204FF495
:1040500078410390CDE90401069000202E22CDE99D
:104060000020029029484088183080B208902748E4
:1040700040881A23079001462548089AFFF78EFAD0
:104080002348FFF7C5FA4FF4784000902048808815
:10409000001D80B208901E480088093080B20023BD
:1040A0002B2207900899FDF7ADFD01204FF4FC612C
:1040B0000390CDE90401069000202E22CDE90020D6
:1040C000029013484088193080B208901048408808
:1040D0001A231FE06602002056020020760200200C
:1040E000960200208602002000020020120200201A
:1040F00024020020CC000020E2000020F800002074
:104100000E010020240100203A010020500100206F
:1041100066010020079001468D48089AFFF73EFA95
:104120008B48FFF775FA4FF4FC6000908848808850
:10413000001D80B2089086480088093080B20023B4
:104140002D2207900899FDF75DFD01204FF478417D
:104150000390CDE90401069000202E22CDE9002035
:1041600002907B484088183080B208907848408898
:104170001A23079001467748089AFFF70FFA754807
:10418000FFF746FA4FF47840009072488088001D8F
:1041900080B208906F480088093080B200232B223B
:1041A00007900899FDF72EFD01204FF29E71002225
:1041B000CDE90302CDE90510104601212E22CDE9FB
:1041C00000210290634840881A2302462D2108905E
:1041D0006148FFF7E3F901205F4988740846FFF75B
:1041E00017FA09B000BD00B587B001204FF478413F
:1041F0000390CDE90401069000202E22CDE9002095
:104200001A2340F21B1240F2051102905348FFF7A7
:10421000C5F95248FFF7FCF94FF478404F4A009037
:104220009288121D91B24D4A1288083290B2002332
:104230002B22FDF7E7FC01204FF4FC610390CDE950
:104240000401069000204222CDE900202E2340F2F6
:104250001B1240F2051102904148FFF79FF94048B8
:10426000FFF7D6F94FF4FC603D4A00909288121D8A
:1042700091B23B4A1288083290B200232D22FDF7FA
:10428000C1FC01204FF478410390CDE90401069070
:1042900000202E22CDE900201A2340F21B1240F20A
:1042A000051102902F48FFF779F92E48FFF7B0F972
:1042B0004FF478402B4A00909288121D91B2294AFF
:1042C0001288083290B200232B22FDF79BFC0120BC
:1042D0004FF4FC610390CDE90401069000204222D6
:1042E000CDE900202E2340F21B1240F2051102906E
:1042F0001D48FFF753F91C48FFF78AF94FF4FC609B
:10430000194A00909288121D91B2174A12880832F9
:1043100090B200232D22FDF775FC01204FF4FC61C3
:104320000022CDE90302CDE90510104601216A22E1
:104330001A23CDE90021029040F21B1240F2051130
:104340000A48FFF72BF90948FFF762F907B000BDEB
:104350007C01002092010020B6000020BE01002058
:10436000A8010020EA010020D4010020A0000020C4
:104370000FB41CB5074B06AA7B446946009005980C
:1043800000F05BF90020694600F06AF91CBC5DF89A
:1043900014FB0000E502000070B504468569006862
:1043A000C10601D5302600E02026C00708D070BD28
:1043B000D4E9012130469047206A00F101002062D3
:1043C0006D1EF5D570BD70B5044685690078C007CF
:1043D00008D170BDD4E9012120209047206A00F166
:1043E000010020626D1EF5D570BD00002DE9F04181
:1043F0000646002410687529314616A511D0AFF382
:104400000080002803DAC0F1000013A507E031683E
:104410008A0701D511A502E0490704D510A501249A
:1044200001E0AFF3008000210A2306F1240707E032
:10443000B0FBF3F203FB1200303078541046491CF5
:104440000028F5D123462A463046BDE8F04100F069
:1044500093B80000000000002D0000002B000000B9
:10446000200000002DE9F0474FF0000A894604467D
:10447000C0F820A02046E1688847002876D025288B
:1044800006D0D4E901219047206A401C2062F1E760
:10449000E168204600258847C4F81CA0064600278E
:1044A000C4F818A02A2E09D0304600F014F938B309
:1044B00004EB8708303EC8F8186019E059F8041B6F
:1044C000204604EB87029161E1688847012F064688
:1044D00018D1E069002820DA25F020051DE0D8F881
:1044E000180000EB800006EB40003038C8F81800D8
:1044F0002046E1688847064600F0EDF80028EED136
:10450000012F0AD02E2E08D12046E16888477F1C53
:104510000646022F45F02005C4DBA069002803DA17
:10452000404245F00105A061E80701D025F01005E3
:10453000B6B1A6F14100192802D8203645F400652D
:104540004A463146204625604D46FBF72BFE58B1C2
:10455000012806D0ED1D25F0070000F1080989E7C4
:1045600004E005F1040985E730468AE7206ABDE8E2
:10457000F0877047704770472DE9F0470D46994620
:104580009246044600F124080168880604D5E069D3
:1045900021F01001216000E00120A84202DDA0EB23
:1045A000050700E00027A16907EB050202EB0900FF
:1045B000A1EB0000A0612078C00602D42046FFF7DE
:1045C000EBFE002608E0D4E901211AF80600904726
:1045D000206A401C761C20624E45F4DB2078C00621
:1045E0000AD52046FFF7D8FE06E0D4E901213020A5
:1045F0009047206A401C2062381EA7F10107F4DCB6
:1046000007E0D4E9012118F805009047206A401C12
:104610002062281EA5F10105F3DC2046FFF7D3FE3A
:104620002078000602D50220BDE8F0870120FBE7D4
:1046300001694A1C02610878704700B58FB0CDE966
:1046400001310021059105497944CDE90310114656
:104650006846FFF707FF0FB000BD0000E5FFFFFF52
:104660000A6802F8010B0A607047754600F028F8E6
:10467000AE4605006946534620F00700854618B04F
:1046800020B5FBF7B5FDBDE820404FF000064FF028
:1046900000074FF000084FF0000B21F00701AC4677
:1046A000ACE8C009ACE8C009ACE8C009ACE8C00996
:1046B0008D4670470446AFF300802046FBF784FD2B
:1046C000004870470403002001491820ABBEFEE7F4
:1046D00026000200704730380A2801D201207047B6
:1046E0000020704710B591EA030F48BF83F00043E4
:1046F00000F14083841A71EB030C05D2121943EBCD
:104700000C03001B61EB0C01DFF824E14FEA1154AC
:10471000A4EB135C1EEA430F18BF9EEA445F73D0FC
:1047200023EA0E03DCF1200E21EA045143F4801346
:1047300032D322FA0CFE10EB0E0023FA0CFE41EBF2
:104740000E01CCF1200E03FA0EFE10EB0E0051F11B
:104750000001B1F5801FCCF1200E32D201EB0451E3
:1047600012FA0EF2BDE8104058BF7047401C38BF27
:104770005FEA420218BF7047002814BF20F0010012
:1047800041F100014FEA410313F5001F38BF7047A4
:10479000A1F1C04100F0E0BA012A43EB0302ACF101
:1047A000200CDCF11F0E32BF4FF0000E23FA0CF389
:1047B00010EB030041EB0451B4EB115FD0D0A1EB3F
:1047C000045101F5801149085FEA300001EB045102
:1047D0000ED350F1000038BF12FA0EFE08D1BDE82A
:1047E0001040C9E7401C38BF5FEA4202CAD1C3E7A4
:1047F000BDE810404FEA410313F5001F38BF704772
:10480000A1F1C04100F0A8BA9EEA445F08D011EAC5
:104810005E0FBDE8104004BF01F00041002070476A
:10482000BDE8104070B500F049FA00BF64FBBE3E21
:104830000000E0FF2DE9C04130B4DFF8A0C23CEA3F
:10484000111418BF3CEA131400F0EC8081EA030550
:104850001CEA111444EAD57418BF1CEA131500F0C1
:10486000C780A4EB05044FF0004545EAC12145EAA5
:10487000C32341EA505143EA525304F17F749942F1
:1048800004F500344FEAC0204FEAC22208BF90422C
:1048900000F09C804FEA13650FF24016765D4FEAF8
:1048A000134506FB05F7C7F1807706FB07F74FEACC
:1048B000D737A7FB03687642C8F58038A7FB06CE3A
:1048C00038BFA8F1010807FB08E64FF0000EA6FB71
:1048D000028CE6FB03CEDCF1000CCEF1004E38BFBB
:1048E000AEF1010EA6FB0C584FF000074FF000058B
:1048F000E6FB0E87A1FB08C6A0FB07CE16EB0E0653
:1049000045F10005E1FB076515F1E04E7EBFA4F51A
:1049100080345FEA46066D4116F1800745F10005D7
:104920004FEA17274FEA066647EA0567A6F1DE4613
:10493000B6F1805F4FEA15251FD9384624F0010CE7
:1049400005EBC471BCF1FE6F01EB0C1102D8F0BC99
:10495000BDE8008124425CBF01F5801E9EEAC47F51
:1049600002D4F0BCBDE80081244238D4F0BCA1F1EF
:10497000C041BDE8004100F0EFB94FEAD22242EA5F
:1049800043524FEAD323A7FB02864FEAD02040EAE6
:10499000415007FB03661EEA0E0F4FEAD12105FBCB
:1049A000026658BFA6EB0056B6EB00564FEA520E11
:1049B0004EEAC37E18EB0E0E56EB530EBDD518EB28
:1049C00002085E417F1C55F10005B6E74FF48015E3
:1049D0004FF000074FF000064FF00008ADE7F0BCC5
:1049E0004FF0000001F1C04101F00041BDE800813D
:1049F00011EA0C1F0CEA131500D00CE013EA0C1F8F
:104A000000F025804FF00000F0BC81EA030101F0C6
:104A10000041BDE80081F0BCBDE8004181EA03012E
:104A200000F09AB9F0BCBDE8004170B500F046F95D
:104A3000097EFC3E00F007B881EA03014FF0000058
:104A400001F00041704781EA030100F085B9F0BC34
:104A5000BDE800414FF0000021497047FFFDFBF920
:104A6000F7F5F4F2F0EEEDEBE9E8E6E4E3E1E0DEA1
:104A7000DDDBDAD8D7D5D4D3D1D0CFCDCCCBCAC813
:104A8000C7C6C5C4C2C1C0BFBEBDBCBBBAB9B8B73A
:104A9000B6B5B4B3B2B1B0AFAEADACABAAA9A8A82D
:104AA000A7A6A5A4A3A3A2A1A09F9F9E9D9C9C9BFB
:104AB0009A999998979796959594939392919190A6
:104AC0008F8F8E8E8D8C8C8B8B8A89898888878737
:104AD0008685858484838382828181800000FF07AC
:104AE0000000F87F4FEA41034FEA5353A3F5806378
:104AF000D3F11E03C8BFD3F1210C0CDD4FF00042EF
:104B000042EAC12242EA505232FA03FC8CEAE17CCA
:104B1000ACEBE1707047102BC4BF0020704703F569
:104B2000787CBCF1FF3F04D06FF0004282EA2100A4
:104B3000704770B500F0C2F8499224800020704799
:104B4000F2E7B0FA80F310FA03F10AD0C3F11D03C3
:104B500003F580634FEA41504FEA035202EBD12143
:104B600070474FF000007047DFF848C170B51CEA8D
:104B7000111E1EBF1CEA13159EEA0C0F95EA0C0FBE
:104B800000F06F8081EA030423EA4C134EEAD47EDE
:104B900021EA4C1141F4801143F48013AE44A1FB8F
:104BA000024CA0FB0365AEF17F7E361955EB0C0578
:104BB000A1FB034C4CF10003A0FB021C16EB0C06FE
:104BC000654153F10003094218BF46F0010613F492
:104BD000007F0BD14FEA03314FEA0530340341EA3D
:104BE000155140EA16506FF003020AE04FEAC32164
:104BF0004FEAC520F40241EA555140EA56506FF0A1
:104C0000020202EB2E4201EB025585EACE710AD078
:104C10005FEA440C18BF24F0004450F1000041F159
:104C2000000120EAD47040F2FE7C624500D270BDE3
:104C3000A84214BF4FF080444FF04044002E08BFFC
:104C40000024BEF1806FA8BFA1F1C041BDE8704053
:104C500080F282804FF0000001F1C04101F000417C
:104C600070479EEA0C0F0CEA131518BF95EA0C0F5B
:104C700006D04FF0000081EA030E0EF0004170BD37
:104C800000F01CF88900013E00F007B800F009B8F8
:104C90004FEA430C5FEA5C5C08D081EA030100F054
:104CA0005BB84FEA410C5FEA5C5CF6D14FF0000064
:104CB000014970470000FF070000F87F0EF1020E67
:104CC0002EF0030E5EF8046B364205D4012A43EB46
:104CD000030515F5001F12D8012841EB010C1CF546
:104CE000001F0CD80ED14FEAD17C15F5001F0CEB3C
:104CF0004C0C0CF1020C08BF4CEBD37C04E04FF0E1
:104D0000080C01E04FEAD37C0CEB4C0526FA05F6C3
:104D100006F00706B6F1040C06D20EEB860CBDE8D1
:104D200070404CF0010C6047DFE80CF0090B020208
:104D30004FF000414FF00000A1F5002170BD194671
:104D40001046012851EB010418BFD4F5001484BFAC
:104D5000002001F0004170BD0808A0F500114FEAE5
:104D60003101704710B591EA030F48BF83F000434B
:104D70003FF5C0AC841A71EB030C07D212198CF00A
:104D8000004C43EB0C03001B61EB0C01DFF8A4E1CA
:104D90004FEA1154A4EB135C1EEA430F18BF9EEABE
:104DA000445F00F0B08023EA6E03524221EA0451CE
:104DB000C3EB6E0338BF5B1EDCF1200E25D322FA55
:104DC0000CFE10EB0E0043FA0CFE41EB0E01CCF191
:104DD000200E03FA0EFE10EB0E0051F10001CCF193
:104DE000200E29D412FA0EF201EB0451BDE8104056
:104DF00058BF7047401C1CBFB2F1004F70470028DD
:104E00000CBF491C20F00100704712EB020E43EB6F
:104E1000030218BF4FF0010E4EEA4202ACF1200C23
:104E2000DCF11E0E54D943FA0CFE10EB0E0051F1CA
:104E3000FF31CCF11E0ED5D50EF1010E12FA0EFE89
:104E4000404141EB010101EB445C5FEA5C5C10D93D
:104E500010EBDE7001EB045138BFBEF1004FBDE82E
:104E6000104018BF704700280CBF491C20F00100FB
:104E7000704730D24FEAD42C11F5001124F40064AD
:104E80001BD0B1FA81F20B3AA41AA41ED2F120036E
:104E9000914030FA03F31943904001EBCC71002CA0
:104EA00001EB0451BDE81040A8BF704701F1C041BB
:104EB0004FF0000001F000417047B0FA80F310FAA3
:104EC00003F100D110BDE41A173C4805C90AE4E714
:104ED00001EB045110BD491001EB0451BDE8104035
:104EE0004FEA300002E04FF0000170474A0008BF6F
:104EF0000042F8D0B2F5001F28BF704701F0004112
:104F00004FF0000070479EEA445F07D011EA5E0F41
:104F1000BDE8104004BF002100207047BDE81040EC
:104F200070B5FFF7CBFE00BF40DFF63E83F00041D7
:104F3000104670470000E0FF401058BFC0F14040ED
:104F4000491058BFC1F140418142EFF300807047E2
:104F5000C10DD1F19E0206DB4FEA002343F000436E
:104F600023FA02F07047004207D54FEA4001B1F141
:104F7000FE4F02D24FF00000704710B500F054F819
:104F800049922480002070476FEA2000704700009B
:104F900010F0004148BF4042B0FA80F310FA03F22B
:104FA000C3F19D030BD051EAC35101EB122053060C
:104FB00038BF704700F1010008BF20F001007047C2
:104FC00050EA010C00F113801CF5000F58BFBCF52E
:104FD000000F01D48842704707D710F5000F58BF63
:104FE00011F5000F15D488427047894270471CF5AF
:104FF000000F04D5BCF5000FF7D5814270474FF084
:10500000807C1CEB400F38BF1CEB410F01D281426A
:10501000704710B500F008F8922449004FF0005096
:105020004FF08051FFF788BF0EF1020E2EF0030EF5
:105030005EF8044B244204D44FEA4102B2F17F4FA0
:1050400011D84FEA4003B3F17F4F0CD80ED14FEA8D
:10505000D07CB2F17F4F0CEB4C0C0CF1020C08BF72
:105060004CEBD17C04E04FF0080C01E04FEAD17C1E
:105070000CEB4C0324FA03F404F00704B4F1040C21
:1050800006D20EEB840CBDE810404CF0010C6047DA
:10509000DFE80CF0070802024FF00040A0F58000A6
:1050A00010BD0846420018BFD2F1807288BF00F0E0
:1050B000004010BD000000000000000000000000E3
:1050C00000000404040404040004000000140A0A9C
:1050D0000000000000000000000014143F140A3F0C
:1050E0000A0A000000041E1505060C14150F040022
:1050F000000012150D0A142C2A1200000000040AE8
:105100000A1E151509360000000202010000000009
:1051100000000000002010080808080808102000FF
:10512000000204080808080808040200000000043F
:10513000150E0E150400000000000404041F0404F2
:105140000400000000000000000000000002020156
:1051500000000000001F0000000000000000000030
:10516000000000000002000000100808080404020B
:105170000202010000000E1111111111110E0000A8
:105180000000040604040404040E000000000E11D4
:1051900011080402011F000000000E11100C101075
:1051A000110E00000000080C0A0A091E0818000071
:1051B00000001F01010F1010110E000000000E0969
:1051C000010F1111110E000000001F090804040452
:1051D0000404000000000E11110E1111110E000048
:1051E00000000E1111111E10120E00000000000030
:1051F00004000000000400000000000000040000A3
:10520000000404000020100804020408102000001C
:10521000000000001F00001F000000000002040842
:10522000102010080402000000000E1111080404F0
:105230000004000000000E111915151D011E0000CC
:10524000000004040C0A0A1E1233000000000F12B2
:10525000120E1212120F000000001E1101010101B6
:10526000110E000000000F1212121212120F000095
:1052700000001F120A0E0A02121F000000001F1277
:105280000A0E0A020207000000001C120101391177
:10529000120C000000003312121E12121233000012
:1052A00000001F0404040404041F000000003E0862
:1052B0000808080808090700000037120A060A0A49
:1052C000123700000000070202020202223F000023
:1052D00000001B1B1B1B15151515000000003B12C1
:1052E00016161A1A1217000000000E1111111111D2
:1052F000110E000000000F12120E02020207000041
:1053000000000E1111111117190E180000000F12D4
:10531000120E0A121237000000001E1101060810BA
:10532000110F000000001F1504040404040E000007
:105330000000331212121212120C0000000033127D
:10534000120A0A0C0404000000001515150E0A0AC2
:105350000A0A000000001B0A0A04040A0A1B0000D3
:1053600000001B0A0A040404040E000000001F09C8
:1053700008040402121F0000001C040404040404B6
:1053800004041C00000202020404080808100000C3
:10539000000E08080808080808080E0000040A00A3
:1053A00000000000000000000000000000000000FD
:1053B0000000003F000400000000000000000000AA
:1053C00000000000000C121C123C00000000030250
:1053D000020E1212120E000000000000001C120249
:1053E000021C000000001810101C1212123C0000D9
:1053F00000000000000C121E021C00000000380417
:10540000041E0404041E000000000000003C120CF6
:10541000021E221C00000302020E121212370000AC
:105420000000040000060404040E00000000080050
:10543000000C08080808080700000302023A0A0ED8
:10544000123700000000070404040404041F0000D5
:1054500000000000000F15151515000000000000E9
:10546000000F12121237000000000000000C121290
:10547000120C000000000000000F1212120E0207B2
:1054800000000000001C1212121C10380000000066
:10549000001B06020207000000000000001E020CB4
:1054A000101E000000000004040E04040418000094
:1054B00000000000001B1212123C0000000000005F
:1054C0000037120A0C040000000000000015150E41
:1054D0000A0A000000000000001B0A040A1B00006A
:1054E000000000000037120A0C0404030000000052
:1054F000001E0804041E000000180808080408081C
:105500000808180008080808080808080808080813
:10551000000604040408040404040600022518001C
:1055200000000000000000004855000800000020B6
:105530005C0000006C010008A45500085C0000201D
:105540000C0900008801000800A24A0400000000C5
:105550000000000001020304060708090000000023
:1055600001020304010203040607080902040608F5
:10557000000000000000000000000000000000002B
:10558000000000000000000000000000000000001B
:10559000000000000000000000000000000000000B
:0455A0000000000007
:0400000508000131BD
:00000001FF
