:020000040800F2
:10000000D8060020CD010008D5010008D70100085E
:10001000D9010008DB010008DD0100080000000034
:10002000000000000000000000000000DF010008E8
:10003000E101000800000000E3010008E5010008FC
:10004000E7010008E7010008E7010008E7010008F0
:10005000E7010008E7010008E7010008E7010008E0
:10006000E7010008E7010008E7010008E7010008D0
:10007000E7010008E7010008E7010008E7010008C0
:10008000E7010008E7010008E7010008E7010008B0
:10009000E7010008E7010008E7010008C51A0008A9
:1000A000E7010008E7010008E7010008E701000890
:1000B000E7010008E7010008E7010008E701000880
:1000C000E7010008E7010008E7010008E701000870
:1000D000E7010008E7010008E7010008E701000860
:1000E000E7010008E7010008E7010008E701000850
:1000F000E7010008E7010008E7010008E701000840
:10010000E7010008E7010008E7010008E70100082F
:10011000E7010008E7010008E7010008E70100081F
:10012000E7010008E7010008E7010008E70100080F
:1001300000F002F800F03AF80AA090E8000C8244BF
:100140008344AAF10107DA4501D100F02FF8AFF29C
:10015000090EBAE80F0013F0010F18BFFB1A43F0A5
:10016000010318471C2700003C270000103A24BF59
:1001700078C878C1FAD8520724BF30C830C144BF0C
:1001800004680C607047000000230024002500264E
:10019000103A28BF78C1FBD8520728BF30C148BFEA
:1001A0000B6070471FB51FBD10B510BD02F0F7F80A
:1001B0001146FFF7F7FF01F097FC02F015F903B4C1
:1001C000FFF7F2FF03BC02F019F90000094880476D
:1001D00009480047FEE7FEE7FEE7FEE7FEE7FEE729
:1001E000FEE7FEE7FEE7FEE704480549054A064B41
:1001F00070470000E902000831010008D800002023
:10020000D8060020D8020020D80200200CB500201B
:10021000019000906948006840F4803067490860A8
:1002200000BF6648006800F4003000900198401C50
:100230000190009818B90198B0F5A06FF1D15F480E
:10024000006810F4003F02D00120009001E000207F
:1002500000900098012842D15948006840F01000F1
:10026000574908600846006820F003000860084607
:10027000006840F002000860504840684F494860FC
:100280000846406848600846406840F4806048601E
:100290000846406820F47C1048600846406840F4F6
:1002A000E81048600846006840F08070086000BFB1
:1002B0004248006810F0007FFAD04048406820F0C3
:1002C00003003E4948600846406840F0020048602C
:1002D00000BF3A48406800F00C000828F9D10CBD76
:1002E00010B5FFF793FF10BD10B53448006840F01B
:1002F00001003249086008464068324908402F49E9
:10030000486008460068304908402C4908600846A3
:10031000006820F4802008600846406820F4FE0051
:1003200048604FF41F008860FFF7DAFF10BD10B57A
:10033000002100200022214B5B6803F00C0121B159
:10034000042906D0082928D107E0204B204C23603F
:1003500027E01E4B1E4C236023E0184B5B6803F420
:100360007010164B5B6803F48032022303EB90405D
:1003700022B9184B4343164C23600DE00F4B5B68CA
:1003800013F4003F04D0134B4343114C236003E0AC
:100390000E4B43430E4C236003E00C4B0C4C23608C
:1003A00000BF00BF054B5B68C3F303130A4CE15C5D
:1003B000074B1B68CB40064C236010BD0010024069
:1003C000002002400000FFF8FFFFF6FE00127A0056
:1003D0000000002000093D0004000020DD48006806
:1003E00040F00100DB49086008464068DA490840EF
:1003F000D849486008460068D8490840D54908608F
:100400000846006820F4802008600846406820F410
:10041000FE0048604FF41F0088607047CD490968AE
:1004200021F48031CB4A11601146096821F4802102
:100430001160B0F5803F03D0B0F5802F0ED106E0FB
:10044000C449096841F48031C24A116007E0C149DA
:10045000096841F4A021BF4A116000E000BF00BF5D
:10046000704710B501460022002300204A11012ADE
:1004700002D1B84C236806E0022A02D1B54C236AA7
:1004800001E0B44C636A01F01F02012494401C4255
:1004900001D0012000E0002010BD38B50020009000
:1004A0000024002500BF3120FFF7DBFF0546009840
:1004B000401C00900098B0F5A06F01D0002DF2D044
:1004C0003120FFF7CEFF08B1012400E000242046D0
:1004D00038BD014600209F4A106820F0F80040EA2D
:1004E000C100106070479E490860704702460020B6
:1004F000984B586820F47C1042EA01031843954B4E
:100500005860704796490866704701460020914A36
:10051000506820F003000843506070478D484068E1
:1005200000F00C007047014600208A4A506820F015
:10053000F00008435060704701460020854A50682B
:1005400020F4E06008435060704701460020814A73
:10055000506820F4605040EAC1005060704729B1F3
:100560007C4A527A02437B4B5A7204E0794A527AAF
:100570008243784B5A7270477A4908607047014647
:100580000020744A506820F440400843506070478F
:100590000021754A11706F4A82F82010012802D09C
:1005A000042808D103E001216F4A117004E00521FD
:1005B0006D4A117000E000BF00BF70476B490860D2
:1005C00070476449096A0143624A1162704767498A
:1005D00044390860704730B5002100220024002310
:1005E0005C4D6D6805F00C0121B1042905D0082986
:1005F00023D105E05E4D056022E05D4D05601FE002
:10060000544D6D6805F47012524D6D6805F48034D8
:10061000022505EB92421CB9564D554305600BE08F
:100620004C4D6D6815F4003F03D0524D55430560A5
:1006300002E04F4D5543056002E04D4D056000BF9F
:1006400000BF444D6D6805F0F00109094A4D6B5C2F
:100650000568DD4045603F4D6D6805F4E061090ABD
:10066000454D6B5C4568DD4085603A4D6D6805F42D
:100670006051C90A404D6B5C4568DD40C560354D31
:100680006D6805F44041890B3C4D6B5CC568B5FB5A
:10069000F3F5056130BD29B12E4A526902432D4B55
:1006A0005A6104E02B4A526982432A4B5A617047CF
:1006B00029B1284A92690243264B9A6104E0254AEF
:1006C00092698243234B9A61704729B1214AD269CA
:1006D0000243204BDA6104E01E4AD26982431D4B7B
:1006E000DA61704729B11B4AD2680243194BDA60BC
:1006F00004E0184AD2688243164BDA60704729B189
:10070000144A12690243134B1A6104E0114A126938
:100710008243104B1A617047144940390860704792
:100720000F49C86470470B49C87170470948406A4F
:1007300040F0807007494862704701460020054A32
:1007400092680A4201D0012000E000207047014970
:1007500088727047001002400000FFF8FFFFF6FEAD
:1007600000004242D800424220100240800442422F
:1007700000127A0000093D0014000020240000202F
:1007800010B50446CA48844208D101210420FFF76D
:10079000A9FF00210420FFF7A5FF46E0C5488442D9
:1007A00008D101210820FFF79DFF00210820FFF755
:1007B00099FF3AE0C048844208D101211020FFF798
:1007C00091FF00211020FFF78DFF2EE0BB488442EF
:1007D00008D101212020FFF785FF00212020FFF70D
:1007E00081FF22E0B648844208D101214020FFF772
:1007F00079FF00214020FFF775FF16E0B1488442E1
:1008000008D101218020FFF76DFF00218020FFF734
:1008100069FF0AE0AC48844207D101218015FFF747
:1008200061FF0021A015FFF75DFF10BD10B501218C
:100830000846FFF757FF00210120FFF753FF10BDC7
:100840002DE9F04102460025002600200023002467
:10085000002791F803C00CF00F0591F803C01CF0BD
:10086000100F03D091F802C04CEA050591F800C0C2
:10087000BCF1000F31D0146800202BE04FF0010CC8
:100880000CFA00F3B1F800C00CEA03069E4220D136
:1008900083004FF00F0C0CFA03F7BC4305FA03FC7E
:1008A0004CEA040491F803C0BCF1280F06D14FF0C4
:1008B000010C0CFA00FCC2F814C00AE091F803C065
:1008C000BCF1480F05D14FF0010C0CFA00FCC2F846
:1008D00010C0401C0828D1D31460B1F800C0BCF18E
:1008E000FF0F34DD546800202EE000F1080C4FF0BB
:1008F000010808FA0CF3B1F800C00CEA03069E42A6
:1009000021D183004FF00F0C0CFA03F7BC4305FA1A
:1009100003FC4CEA040491F803C0BCF1280F05D194
:1009200000F1080C08FA0CF8C2F8148091F803C022
:10093000BCF1480F07D100F1080C4FF0010808FA8C
:100940000CF8C2F81080401C0828CED35460BDE8D3
:10095000F0814FF6FF710180022181700421C17086
:1009600070470246002093680B4201D0012000E04E
:10097000002070470146886880B270470246002018
:10098000D3680B4201D0012000E0002070470146EF
:10099000C86880B2704701617047416170470AB111
:1009A000016100E041617047C16070474FF48032DF
:1009B0000A4382618161826182698269704702466D
:1009C0000020424B18684FF68073184040EA02102E
:1009D00008433E4B186070473D49C8617047F0B509
:1009E0000A46002300240021002500F00046B6F14D
:1009F000004F02D1354EF16901E0344E7168C0F309
:100A0000034583B200F44016B6F5401F08D121F02B
:100A100070612E4E766826F070662C4F7E6012E074
:100A200000F48016B6F5801F06D1032606FA05F4F9
:100A3000A14341F0706106E0460D360103FA06F667
:100A4000B14341F0706122B1460D360103FA06F65A
:100A5000314300F00046B6F1004F02D11B4EF16168
:100A600001E01A4E7160F0BD30B500228B071C0FFB
:100A70000F2303FA04F2154B08338C1053F824307B
:100A80009343124C08348D1044F8253023468C10C3
:100A900053F824308C07240F00FA04F423430B4C42
:100AA00008348D1044F8253030BD0A49086070477D
:100AB00000080140000C01400010014000140140FA
:100AC00000180140001C01400020014000000140CE
:100AD00000002042DC00204230B943F2DB014FF03D
:100AE000204242F8201005E043F2D2014FF02042AC
:100AF00042F820106FF07042411C4FF0204343F841
:100B0000212011461A4602EB8002C2F804117047F8
:100B100010280AD118214FF0204211664021516659
:100B20004FF0FC319166D16610E01821F84A11604F
:100B30004FF040014FF02042C2F884104FF0FC31DA
:100B4000F44A11604FF02042C2F88C107047182010
:100B5000F14908604FF000004FF02041C1F8A400B7
:100B60004FF0FC30ED49086001F10401086001F12B
:100B7000040108607047D0E901121143C2681143B3
:100B8000026911434269114382691143C2691143E9
:100B9000026A1143426A1143826A1143C26A1143D5
:100BA000026B11434FF02043026843F82210816822
:100BB000082908D11A46016852F8211041F0400175
:100BC000026843F82210416B0968426B526841EA9F
:100BD0000211426B926841EA0221426B928941EA1A
:100BE0000241426B128A41EA0251426B127D41EA94
:100BF0000261426B926911430268521C4FF020431C
:100C000043F82210C16AB1F5804F1AD1816B09688F
:100C1000826B526841EA0211826B926841EA0221BA
:100C2000826B128A41EA0251826B127D41EA0261B3
:100C3000826B92691143026803EB8202C2F80411CD
:100C400008E06FF070414FF02043026803EB82022E
:100C5000C2F80411704730B5002100220023446817
:100C600044F0080485682C43C5682C4305692C436F
:100C7000456944EA4524856944EA4531C4692468E4
:100C8000C5696D6844EA0524C5692D8944EA0544AF
:100C9000C5692D7B44EA0562046A2468056A6D68AB
:100CA00044EA0524056A2D8944EA0544056A2D7B3A
:100CB00044EA05630468102C05D14FF020442166F6
:100CC000A266E36607E0924C21604FF02044C4F82E
:100CD0008820934C236030BD016841F010014268C8
:100CE00041EA4221826841EA42318B4A1160C1687F
:100CF0000968C268526841EA0221C268128941EA61
:100D00000241C268127B41EA0261844A11600169B2
:100D100009680269526841EA02210269128941EABE
:100D200002410269127B41EA02617E4A1160416917
:100D300009684269526841EA02214269128941EA1E
:100D400002414269127B41EA02614FF02042C2F83F
:100D5000B0107047002101600221416000218160D4
:100D6000C160016141618161C16101624FF48051E3
:100D70004162490081620021C16201630F21426B1F
:100D80001160426B5160FF21426B91600F21426BF9
:100D9000D160426B1161426B51610021426B9161E4
:100DA0000F21826B1160826B5160FF21826B916019
:100DB0000F21826BD160826B1161826B51610021C6
:100DC000826B916170471021016000214160816058
:100DD000C160016141618161FC21C2691160C26928
:100DE0005160C2699160C269D160026A1160026A91
:100DF0005160026A9160026AD1607047002101600F
:100E000041608160FC21C2681160C2685160C268A3
:100E10009160C268D1600269116002695160026923
:100E200091600269D1604269116042695160426912
:100E300091604269D160704751B14FF0204252F841
:100E4000202042F001024FF0204343F8202009E027
:100E50004FF0204252F82020334B1A404FF02043ED
:100E600043F82020704799B1102808D14FF0204254
:100E7000126E42F004024FF020431A661DE0244A2D
:100E8000126842F004024FF02043C3F8802014E0BF
:100E9000102809D14FF02042126E234BDB1E1A405E
:100EA0004FF020431A6608E0194A12681F4B02EA05
:100EB00003024FF02043C3F88020704740B1164929
:100EC000096841F004014FF02042C2F8A01008E088
:100ED00011490968154A01EA02014FF02042C2F89F
:100EE000A010704799B1102808D14FF02042126E1F
:100EF00042F040024FF020431A662DE0044A126887
:100F000042F040024FF02043C3F8802024E00FE07D
:100F1000800000A0880000A0A00000A0A80000A001
:100F20008C0000A0AC0000A0FEFF0F00FBFF0F0034
:100F3000102808D14FF02042126E684B1A404FF033
:100F400020431A6608E0664A1268644B02EA03020C
:100F50004FF02043C3F8802070470146002010293D
:100F600003D14FF02042506F01E05E4A1068704795
:100F700010B5F2B1102807D14FF020435B6E0B4340
:100F80004FF02044636632E0B0F5807F08D1564BC5
:100F90001B6843EA01034FF02044C4F8843026E084
:100FA000524B1B6843EA01034FF02044C4F8A430BD
:100FB0001DE0102807D14FF020435B6E8B434FF0AC
:100FC0002044636613E0B0F5807F08D1464B1B6870
:100FD00023EA01034FF02044C4F8843007E0434B78
:100FE0001B6823EA01034FF02044C4F8A43010BD6D
:100FF00010B5024600200023102A03D14FF02044F0
:10100000636E07E0B2F5807F02D1374C236801E0C0
:10101000364C23680B4201D0012000E0002010BDB7
:10102000102807D14FF02042526E8A434FF02043E0
:101030005A6613E0B0F5807F08D12B4A126822EA85
:1010400001024FF02043C3F8842007E0274A1268CA
:1010500022EA01024FF02043C3F8A420704770B584
:1010600002460020002300240025102A03D14FF05F
:101070002046736E07E0B2F5807F02D11A4E3368C6
:1010800001E01A4E336803EA010403EAD10514B102
:101090000DB1012000E0002070BD102808D14FF0F4
:1010A0002042526E22EAD1024FF020435A6613E0EA
:1010B000B0F5807F08D10C4A126822EAD1024FF0C5
:1010C0002043C3F8842007E0084A126822EAD102CC
:1010D0004FF02043C3F8A42070470000BFFF0F006B
:1010E000800000A0940000A0840000A0A40000A044
:1010F00031490143314A1160704770B50021002326
:101100000F22C4780CB32D4C246804F4E064C4F5B9
:10111000E064210AC1F10403CA40447804FA03F1EF
:101120008478144021430901254C0678A1550478A0
:1011300004F01F050124AC4005786D114FF0E02646
:1011400006EB8505C5F8004109E0047804F01F05A9
:101150000124AC401B4D0678761145F8264070BD41
:10116000194A0A400243154B1B1F1A60704739B1D8
:10117000124A121D12680243104B1B1D1A6006E032
:101180000E4A121D126882430C4B1B1D1A607047D9
:10119000042808D14FF0E021096941F004014FF023
:1011A000E022116107E04FF0E021096921F004011C
:1011B0004FF0E022116170470000FA050CED00E0ED
:1011C00000E400E080E100E080FFFF1F00204449D0
:1011D0000860091D0860091D0860091D0860414874
:1011E0003F4914310860704700213D498279002A47
:1011F0003AD00A46126803689A430B461A600A1DE1
:10120000126803689A430B1D1A60027911440A6838
:1012100003681A430A60324A0832126803689A4324
:101220002F4B08331A601A1D126803689A432C4B1F
:101230000C331A604279102A0ED11A1F1268036803
:101240001A43274B08331A601A1D126803681A43A1
:10125000234B0C331A600DE02149427911440A688E
:1012600003681A430A6005E0027911440A680368BA
:101270009A430A6070470021016001710C2141719D
:101280000021817170471649103109680143144AE1
:1012900010321160704701460020114A1432126862
:1012A0000A4201D0012000E0002070470C491431AF
:1012B00008607047014600200022094B1B6803EAC2
:1012C0000102074B14331B680B4202D00AB1012004
:1012D00000E00020704702491431086070470000A8
:1012E00000040140FFFF0F0010B50446BE488442D1
:1012F00008D101218014FFF7F5F90021A014FFF7B0
:10130000F1F916E0B948844208D101210014FFF731
:10131000F6F900212014FFF7F2F90AE0B4488442FC
:1013200007D10121C013FFF7EAF90021E013FFF70D
:10133000E6F910BD10B50022028802F441520B8874
:101340004C8823438C882343CC8823430C89234334
:101350004C8923438C892343CC8923431A4302803D
:10136000838B4FF2FF74234083830B8A038210BD6B
:101370002DE9F04F85B005460C464FF000090227D5
:101380004FF000084FF0010B0026B246A88B4FF239
:1013900040010840A88302202884B5F81C90A0686A
:1013A000022801D100BF38E0A08810B94FF0010B2E
:1013B00001E04FF0020B8D48854200D100E000BFF4
:1013C0006846FFF708F9DDF800A0E088B0F5007F77
:1013D0000AD14FEA1A2000EB80004000A168B0FB60
:1013E000F1F0401D86B20BE04FEA4B10BAFBF0F073
:1013F00000EB80004000A168B0FBF1F0401D86B218
:101400000A20B6FBF0F606F00108A6EB0800C0F3D0
:101410004F074FF6FF7000EA0828022F01DBFF2F6D
:1014200002DD02274FF00008E08840EA0800384358
:101430002884A088A189084361880843218808433B
:1014400040F4006040EA0909A5F81C9005B0BDE829
:10145000F08F0021018041808180C1800181418124
:101460008181C18107210182704700210180418073
:101470008180C1800221816000218181704721B17A
:10148000028842F04002028004E002884FF6BF73F7
:101490001A400280704721B1828B42F480628283BD
:1014A00004E0828B4FF6FF331A408283704730B5D9
:1014B000002400230C110125A540ABB21AB1858888
:1014C0001D43858002E085889D43858030BD1AB12B
:1014D00083880B43838002E083888B43838070473B
:1014E00081817047014688897047A1F57E42FF3AA5
:1014F00004D0028842F48072028004E002884FF631
:10150000FF631A400280704721B1828842F00402D2
:10151000828004E082884FF6FB731A408280704715
:1015200002884FF2FF731A40028002880A43028049
:101530007047018841F480510180704721B10288D1
:1015400042F40052028004E002884DF6FF731A4014
:101550000280704702460020012901D0108B00E074
:10156000908A70470146088A7047B1F5804F04D1D0
:10157000028842F48042028004E002884BF6FF7346
:101580001A40028070470246002013890B4201D0A6
:10159000012000E000207047CA4302817047F0B587
:1015A0000246002000240023002501F00F07012639
:1015B000BE40B4B20B1101269E40B3B2968806EA33
:1015C00003051689264202D00DB1012000E000205B
:1015D000F0BD10B5002201F00F040123A3409AB220
:1015E000D343038110BD00000030014000380040AB
:1015F000003C004010B501210220FFF766F864208E
:10160000FE49088041F28830091D0880FB481C38DB
:10161000008840F00100F9491C390880F748283853
:10162000008840F00100F549283908801D2001217B
:10163000814042094FF0E02303EB8202C2F800111F
:1016400000BF10BD00B597B001217C20FFF730F836
:1016500001210802FFF71FF8E948406820F44040E4
:10166000E74948600846406848600846806940F499
:10167000007088614CF23370ADF8000018208DF8CE
:10168000030003208DF802006946DE48FFF7D8F812
:101690004FF68070ADF8000018208DF8030003208D
:1016A0008DF802006946D848FFF7CAF810208DF877
:1016B00003004020ADF800006946D248FFF7C0F8AB
:1016C0000220ADF800006946CF48FFF7B9F81820AE
:1016D0008DF803008020ADF800006946C948FFF787
:1016E000AFF84FF40060ADF800006946C548FFF759
:1016F000A7F88021C348FFF74EF90221C248FFF73F
:101700004CF91021BF48FFF746F92021BD48FFF7EB
:1017100042F9022001900020029005200390002051
:101720000490059006904FF080500790002008909C
:10173000099008200A9010200B9000200C900E9029
:101740000F9010904FF48050119000201290139041
:10175000149001A81590169008A8FFF70CFA012123
:101760000020FFF769FB0221A748FFF716F9A748F9
:1017700000F0E2F90221A448FFF70DF9A34800F0B8
:10178000DBF90121002000F017FA0A2000F0D4F95B
:101790001021152000F010FA4021112000F00CFA61
:1017A00041F22861102000F007FA0021122000F019
:1017B00003FA41F24D01132000F0FEF90A2000F077
:1017C000BBF91021122000F0F7F90A2000F0B4F95B
:1017D00042F22061102000F0EFF943F24D41132056
:1017E00000F0EAF90A2000F0A7F90021012000F03A
:1017F000E3F94FF44071022000F0DEF941F23801C4
:10180000032000F0D9F940F20461082000F0D4F977
:101810000021092000F0D0F908210A2000F0CCF9BD
:101820000221412000F0C8F94FF41C51602000F063
:10183000C3F90121612000F0BFF94FF4C17190207C
:1018400000F0BAF90121932000F0B6F91021A3208D
:1018500000F0B2F90A2000F06FF90021302000F00A
:10186000ABF940F20251312000F0A6F940F2073105
:10187000322000F0A1F940F20531332000F09CF94C
:101880000421342000F098F940F20241352000F0A4
:1018900093F940F20771362000F08EF940F20351BF
:1018A000372000F089F941F20551382000F084F921
:1018B00041F20551392000F07FF90A2000F03CF98F
:1018C0000121072000F078F90A2000F035F92121E4
:1018D000072000F071F92321072000F06DF90A209C
:1018E00000F02AF93321072000F066F90A2000F001
:1018F00023F940F23311072000F05EF917B000BD64
:1019000000B587B001210803FEF7D2FEE020ADF854
:10191000040003208DF8060018208DF8070001A9A7
:101920003B48FEF78DFF1020ADF8040003208DF832
:10193000060010208DF8070001A93548FEF780FF4A
:1019400010213348FFF727F80020ADF808004FF4C6
:101950008270ADF80A000020ADF80C000220ADF84E
:101960000E000120ADF810004002ADF81200182062
:10197000ADF814000020ADF816000720ADF81800EF
:1019800002A92448FFF7D6FC01212248FFF777FD82
:1019900007B000BD08B50120ADF8000000208DF8AB
:1019A000030002208DF8020069461B48FEF748FF3D
:1019B0000A201A4908604FF4F01018492C390860C1
:1019C0000846006840F0010008600846006840F0E2
:1019D0000800086000BF11482C38006800F00800BB
:1019E0000828F8D00D482C38006840F004000B4956
:1019F0002C39086000BF09482C3811E02804004049
:101A0000001002400014014000180140FFFF0F00C9
:101A10000008014000300140001001403424014022
:101A2000006800F008000428E5D008BD08B50121D1
:101A30000846FEF73DFE4FF4C060FFF759FB172044
:101A40008DF800000F208DF801008DF802000120B4
:101A50008DF803006846FFF750FB08BD4FF0E0210A
:101A6000096921F004014FF0E0221161C21700EB77
:101A70005272C2F3C702114B1A701946097801EB72
:101A80004102C2EBC1114FF6FF7202EAC1010C4ADA
:101A9000118070471CB506210120FEF7E5FF4020AC
:101AA000009000208DF804000C208DF80500012026
:101AB0008DF806006846FFF797FB1CBD2E0000203E
:101AC0003000002010B54020FFF7F4FB58B1402152
:101AD0001648FEF746FF16490870012015490870A0
:101AE0004020FFF7F8FB10BDFFF7ACFDFFF708FF44
:101AF000FFF750FFFFF79AFFFFF7CCFF4820FFF7F3
:101B0000ADFF0021502000F057F8EF21512000F0E8
:101B100053F80021522000F04FF840F23F115320BB
:101B200000F04AF800F0F8FA00BFFEE7000C0140B0
:101B3000280000202A000020002100E0491C8142EA
:101B4000FCD3704701461A4A12884A434FF0E023FB
:101B50005A6100229A6101221A6100BF4FF0E0220F
:101B6000106910F0010F02D010F4803FF6D000226F
:101B70004FF0E0231A619A61704701460D4A1278CE
:101B80004A434FF0E0235A6100229A6101221A6110
:101B900000BF4FF0E022106910F0010F02D010F4E6
:101BA000803FF6D000224FF0E0231A619A6170471F
:101BB000300000202E0000204FF0C0431880034B5F
:101BC00019807047014A10807047000000000260D1
:101BD0002DE9F05F04460D4617469846DDF828B01B
:101BE000B4F5987F01DCE82D01DDBDE8F09F2946C2
:101BF0002020FFF7E1FF05F10B012120FFF7DCFFBB
:101C000029465020FFF7D8FF05F10B015120FFF7BF
:101C1000D3FF21465220FFF7CFFF611D5320FFF76E
:101C2000CBFF29462020FFF7C7FF21462120FFF7E1
:101C3000C3FF22204FF0C0410880A7F12000C7B2A7
:101C400000261EE007EB4700B94901EB800010F8C1
:101C500006904FF0000A0FE019F0010F03D0404644
:101C6000FFF7B0FF02E05846FFF7ACFF4FEA690903
:101C70000AF1010000F0FF0ABAF1060FECDB701C5C
:101C8000C6B20C2EDEDB00215020FFF795FFEF21BE
:101C90005120FFF791FF00215220FFF78DFF40F206
:101CA0003F115320FFF788FF00BF9EE72DE9F8435F
:101CB00005460E4614461F46DDF8208017E0B5F5B0
:101CC000987F03DD002506F10C0086B2E82E02DDC8
:101CD0000020054606464FF29E70009022783B4653
:101CE00031462846FFF774FFA81D85B2641C207892
:101CF0000028E4D1BDE8F8832DE9F05F04460D46E5
:101D000016469946DDF828B00027B846A84627466B
:101D100029462020FFF750FF21462120FFF74CFFE6
:101D200022204FF0C04108804FF0000A1EE0B7FBB0
:101D3000F6F006FB107020B1B8FBF6F006FB108041
:101D400018B94846FFF73EFF02E05846FFF73AFF52
:101D50007F1CB7F5A07F02D108F101080027B8F178
:101D6000F00F01D14FF000080AF1010A601CC0F524
:101D7000A070691CC1F1F00148435045D7D2BDE8BD
:101D8000F09F2DE9F04704460D4616461F46DDF844
:101D9000209021462020FFF70FFF31462120FFF73A
:101DA0000BFF22204FF0C0410880A04604E04846C7
:101DB000FFF708FF08F1010805FB07F04045F6DAD8
:101DC0004FF00008BDE8F08770B504460E46154692
:101DD00031462020FFF7F0FE21462120FFF7ECFEE0
:101DE00022204FF0C04108802846FFF7EBFE70BD6F
:101DF0002DE9F04F85B006468A4617469B46049665
:101E00000397BAEB060002D44FF0010801E04FF04F
:101E1000FF38BBEB070002D44FF0010901E04FF09F
:101E2000FF39B8F1010F02D1AAEB060401E0A6EBDD
:101E30000A04B9F1010F02D1ABEB070501E0A7EBF2
:101E40000B05A54205DD20462C46054601210291E1
:101E500001E000200290C4EB4500019000200090BA
:101E600027E00E9ADDE90310FFF7AEFF0DE00298C0
:101E700018B104984044049002E003984844039049
:101E80000221019801FB1400019001980028EEDA6C
:101E9000029818B103984844039002E00498404423
:101EA00004900221019801FB050001900098401C5C
:101EB00000900098A042D4DB0020009005B0BDE85F
:101EC000F08F2DE9F05F05460E46144699462046F0
:101ED00004EBD071A5EB61018FB204EBD07105EB7F
:101EE00061011FFA81FA04EBD071A6EB61011FFAC0
:101EF00081F804EBD07106EB61011FFA81FB06E06B
:101F00004A4631463846FFF75FFF781C87B257458F
:101F1000F6DD08E04A4641462846FFF755FF08F13E
:101F200001001FFA80F8D845F4DDBDE8F09F0000FD
:101F30000A2400082DE9F04708AC94E8F010DDE928
:101F40000D89018042808380C4800572468187812B
:101F500080F80EC0A0F810804FF0000A80F812A0A0
:101F600080F813A080F81490BDE8F087F8B5044617
:101F700060882188884203DA66882088608026800D
:101F8000E088A188884203DAE688A088E080A680FD
:101F9000207A08B9012000E00020A17B09B90121C5
:101FA00000E00021084202D00020E074F8BDA07CCF
:101FB00010B90020E074F9E7207A012800D100E090
:101FC0000020A17B09B9012100E0002108422BD0AB
:101FD000002526E060890090A7887B197A1961881E
:101FE0002088FFF705FF60890090E7887B1B7A1B3C
:101FF00061882088FFF7FCFE60890090E388A28852
:10200000278879197819FFF7F3FE60890090E7882F
:102010007B1CA2886788791B781BFFF7E9FE681C88
:1020200085B2A089A842D5DC207A08B9012000E059
:102030000020A17B012900D100E00021084212D03C
:10204000A5880DE0268806E0228A29463046FFF75B
:10205000BBFE701C86B26088B042F5DC681C85B29D
:10206000E088A842EEDC207A012800D100E00020C0
:10207000A17B012900D100E00021084248D00025C1
:1020800026E060890090A7887B197A1961882088EA
:10209000FFF7AEFE60890090E7887B1B7A1B6188A2
:1020A0002088FFF7A5FE60890090E388A288278832
:1020B00079197819FFF79CFE60890090E7887B1CEE
:1020C000A2886788791B781BFFF792FE681C85B28F
:1020D000A089A842D5DCA088A189084485B212E075
:1020E0002088A189084486B206E0228A2946304623
:1020F000FFF76AFE701C86B26088A189401AB04260
:10210000F3DA681C85B2E088A189401AA842E7DAB0
:102110000120E07400BF49E710B588B04FF6FF70AA
:10212000F02300224FF4A07100901046FFF729FE23
:1021300001204FF29E710390CDE90401069000202A
:1021400001211A220346CDE90021029040F23F12FC
:1021500001467E48FFF7EEFE01207C498874084660
:10216000FFF704FF01204FF4FC610390CDE9040167
:10217000069000202E22CDE900201A2316220146C7
:1021800002907348FFF7D6FE01204FF47841039088
:10219000CDE90401069000202E22CDE900201A236B
:1021A0002D22162102906B48FFF7C4FE01206949D9
:1021B00088746749887400243EE066484088644912
:1021C00008800846008819304880084640886149E0
:1021D000088008460088183048805D48FFF7C6FE32
:1021E00000205B4A0090118810882E230022FFF700
:1021F000FFFD5848FFF7BAFE4FF4FC60544A0090C8
:102200009288121D91B2524A1288093290B200236C
:102210002D22FFF7DDFC4FF478404E4A0090928863
:10222000121D91B24B4A1288093290B200232B2220
:10223000FFF7CEFC601CC4B2042CBEDB01204FF2C1
:102240009E710022CDE90302CDE90510104601215F
:102250002E22CDE9002102903E4842881A232D21EA
:102260003A48FFF767FE0120384988740846FFF7AF
:102270007DFE0020374A0090518850882E2300228E
:10228000FFF7B6FD4FF29E70002333A202210090AB
:102290000846FFF70BFD4FF29E70002330A20D2180
:1022A00000900220FFF702FD00201A2302462D2194
:1022B00000900846FFF79CFD4FF29E7000232AA273
:1022C000022100902F20FFF7F1FC4FF29E700023B7
:1022D00027A20D2100903C20FFF7E8FC4FF29E70F2
:1022E000002325A2022100906B20FFF7DFFC4FF2B4
:1022F0009E70002321A20D2100906B20FFF7D6FCD9
:102300004FF29E7000231FA2022100909D20FFF734
:10231000CDFC4FF29E70002318A20D2100909D204D
:10232000FFF7C4FC4FF29E70002318A20221009018
:10233000D220FFF7BBFC4FF29E70002315A20D21A7
:102340000090D220FFF7B2FC08B010BD340000208E
:10235000600000204A0000204D6F64653A000000D4
:1023600045712E74696D65002020426567696E00B5
:102370003130303000000000456E640031323030C2
:102380000000000053746570000000007174792E25
:1023900000000000313000007047704770477546FC
:1023A00000F028F8AE4605006946534620F00700C5
:1023B000854618B020B5FDF717FFBDE820404FF067
:1023C00000064FF000074FF000084FF0000B21F01F
:1023D0000701AC46ACE8C009ACE8C009ACE8C009EC
:1023E000ACE8C0098D4670470446AFF30080204634
:1023F000FDF7E5FE004870477800002001491820ED
:10240000ABBEFEE72600020070470000000000009F
:1024100000000000000000000404040404040004A0
:10242000000000140A0A0000000000000000000084
:1024300014143F140A3F0A0A000000041E15050682
:102440000C14150F0400000012150D0A142C2A128A
:1024500000000000040A0A1E1515093600000002DB
:102460000201000000000000000000201008080821
:1024700008080810200000020408080808080804DA
:10248000020000000004150E0E15040000000000FC
:102490000404041F04040400000000000000000005
:1024A00000000002020100000000001F0000000008
:1024B000000000000000000000000002000000100A
:1024C0000808080404020202010000000E111111A4
:1024D0001111110E00000000040604040404040E8F
:1024E000000000000E1111080402011F000000008E
:1024F0000E11100C1010110E00000000080C0A0A3A
:10250000091E0818000000001F01010F1010110E15
:10251000000000000E09010F1111110E0000000053
:102520001F09080404040404000000000E11110E29
:102530001111110E000000000E1111111E10120ECB
:102540000000000000000400000000040000000083
:102550000000000400000004040000201008040231
:10256000040810200000000000001F00001F0000F1
:1025700000000002040810201008040200000000FF
:102580000E11110804040004000000000E111915BA
:10259000151D011E0000000004040C0A0A1E12335F
:1025A000000000000F12120E1212120F00000000A5
:1025B0001E1101010101110E000000000F12121284
:1025C0001212120F000000001F120A0E0A02121F40
:1025D000000000001F120A0E0A020207000000009D
:1025E0001C1201013911120C000000003312121EDE
:1025F00012121233000000001F0404040404041F1C
:10260000000000003E08080808080809070000004C
:1026100037120A060A0A12370000000007020202F7
:102620000202223F000000001B1B1B1B1515151585
:10263000000000003B1216161A1A121700000000C4
:102640000E1111111111110E000000000F12120EC7
:1026500002020207000000000E1111111117190EDD
:10266000180000000F12120E0A12123700000000AC
:102670001E1101060810110F000000001F150404B0
:102680000404040E00000000331212121212120C85
:10269000000000003312120A0A0C040400000000BB
:1026A0001515150E0A0A0A0A000000001B0A0A0482
:1026B000040A0A1B000000001B0A0A040404040E9A
:1026C000000000001F0908040402121F0000001C83
:1026D00004040404040404041C00000202020404B0
:1026E000080808100000000E080808080808080874
:1026F0000E0000040A0000000000000000000000BE
:102700000000000000000000003F00040000000086
:1027100000000000000000000000000C121C123C31
:10272000000000000302020E1212120E0000000050
:102730000000001C1202021C000000001810101CF7
:102740001212123C000000000000000C121E021CBD
:10275000000000003804041E0404041E00000000F1
:102760000000003C120C021E221C00000302020E9C
:102770001212123700000000040000060404040EC8
:10278000000000000800000C080808080807000006
:102790000302023A0A0E1237000000000704040484
:1027A0000404041F000000000000000F151515159B
:1027B000000000000000000F12121237000000009D
:1027C0000000000C1212120C000000000000000FAC
:1027D0001212120E020700000000001C1212121C3E
:1027E000103800000000001B060202070000000075
:1027F0000000001E020C101E000000000004040E69
:1028000004040418000000000000001B1212123C17
:102810000000000000000037120A0C040000000055
:1028200000000015150E0A0A000000000000001B41
:102830000A040A1B0000000000000037120A0C0402
:10284000040300000000001E0804041E000000181D
:1028500008080804080808081800080808080808F4
:10286000080808080808000604040408040404040E
:102870000600022518000000000000000000000013
:10288000A028000800000020340000006C010008AF
:10289000D428000834000020A406000088010008A5
:1028A00000A24A040000000000000000010203042E
:1028B00006070809000000000102030401020304E6
:1028C00006070809020406080000000000000000D6
:0428D0000000000004
:0400000508000131BD
:00000001FF
