:020000040800F2
:1000000060070020D5010008DD010008DF010008BD
:10001000E1010008E3010008E5010008000000001C
:10002000000000000000000000000000E7010008E0
:10003000E901000800000000EB010008ED010008E4
:10004000EF010008EF010008EF010008EF010008D0
:10005000EF010008EF010008EF010008EF010008C0
:10006000EF010008EF010008EF010008EF010008B0
:10007000EF010008EF010008EF010008EF010008A0
:10008000EF010008EF010008EF010008EF01000890
:10009000EF010008EF010008EF010008CD1A000889
:1000A000EF010008EF010008EF010008EF01000870
:1000B000EF010008EF010008EF010008EF01000860
:1000C000EF010008EF010008EF010008EF01000850
:1000D000EF010008EF010008EF010008EF01000840
:1000E000EF010008EF010008EF010008EF01000830
:1000F000EF010008EF010008EF010008EF01000820
:10010000EF010008EF010008EF010008EF0100080F
:10011000EF010008EF010008EF010008EF010008FF
:10012000EF010008EF010008EF010008EF010008EF
:1001300000F002F800F03FF80AA090E8000C8244BA
:100140008344AAF10107DA4501D100F034F8AFF297
:10015000090EBAE80F0013F0010F18BFFB1A43F0A5
:10016000010318474C4600006C460000103A24BFBB
:1001700078C878C1FAD8520724BF30C830C144BF0C
:1001800004680C607047000000230024002500264E
:10019000103A28BF78C1FBD8520728BF30C148BFEA
:1001A0000B607047642903F06582002070471FB51B
:1001B0001FBD10B510BD03F09CFB1146FFF7F7FF04
:1001C00001F096FC03F0BAFB03B4FFF7F2FF03BCA7
:1001D00003F0BEFB0948804709480047FEE7FEE7F9
:1001E000FEE7FEE7FEE7FEE7FEE7FEE7FEE7FEE7E7
:1001F00004480549054A064B70470000F102000813
:100200003101000860010020600700206003002029
:10021000600300200CB50020019000906948006840
:1002200040F480306749086000BF6648006800F409
:10023000003000900198401C0190009818B9019876
:10024000B0F5A06FF1D15F48006810F4003F02D014
:100250000120009001E0002000900098012842D188
:100260005948006840F01000574908600846006887
:1002700020F0030008600846006840F002000860B3
:10028000504840684F494860084640684860084602
:10029000406840F4806048600846406820F47C1064
:1002A00048600846406840F4E81048600846006826
:1002B00040F08070086000BF4248006810F0007F86
:1002C000FAD04048406820F003003E4948600846A4
:1002D000406840F00200486000BF3A48406800F0C3
:1002E0000C000828F9D10CBD10B5FFF793FF10BD25
:1002F00010B53448006840F00100324908600846F3
:100300004068324908402F49486008460068304933
:1003100008402C4908600846006820F480200860E6
:100320000846406820F4FE0048604FF41F008860D3
:10033000FFF7DAFF10BD10B5002100200022214B8D
:100340005B6803F00C0121B1042906D0082928D1EB
:1003500007E0204B204C236027E01E4B1E4C2360FF
:1003600023E0184B5B6803F47010164B5B6803F4D2
:100370008032022303EB904022B9184B4343164CC2
:1003800023600DE00F4B5B6813F4003F04D0134B68
:100390004343114C236003E00E4B43430E4C236058
:1003A00003E00C4B0C4C236000BF00BF054B5B68A7
:1003B000C3F303130A4CE15C074B1B68CB40064CAC
:1003C000236010BD00100240002002400000FFF832
:1003D000FFFFF6FE00127A000000002000093D0039
:1003E00004000020DD48006840F00100DB4908609F
:1003F00008464068DA490840D8494860084600681D
:10040000D8490840D54908600846006820F4802093
:1004100008600846406820F4FE0048604FF41F0062
:1004200088607047CD49096821F48031CB4A11605A
:100430001146096821F480211160B0F5803F03D096
:10044000B0F5802F0ED106E0C449096841F480312F
:10045000C24A116007E0C149096841F4A021BF4ABE
:10046000116000E000BF00BF704710B501460022D8
:10047000002300204A11012A02D1B84C236806E06B
:10048000022A02D1B54C236A01E0B44C636A01F040
:100490001F02012494401C4201D0012000E00020F2
:1004A00010BD38B5002000900024002500BF312089
:1004B000FFF7DBFF05460098401C00900098B0F560
:1004C000A06F01D0002DF2D03120FFF7CEFF08B190
:1004D000012400E00024204638BD014600209F4A48
:1004E000106820F0F80040EAC100106070479E4993
:1004F0000860704702460020984B586820F47C1032
:1005000042EA01031843954B5860704796490866C4
:10051000704701460020914A506820F003000843CC
:10052000506070478D48406800F00C0070470146ED
:1005300000208A4A506820F0F0000843506070475D
:1005400001460020854A506820F4E060084350606E
:10055000704701460020814A506820F4605040EA0C
:10056000C1005060704729B17C4A527A02437B4BEC
:100570005A7204E0794A527A8243784B5A72704731
:100580007A490860704701460020744A506820F498
:1005900040400843506070470021754A11706F4A0F
:1005A00082F82010012802D0042808D103E001219C
:1005B0006F4A117004E005216D4A117000E000BF20
:1005C00000BF70476B49086070476449096A01437E
:1005D000624A11627047674944390860704730B514
:1005E00000210022002400235C4D6D6805F00C0101
:1005F00021B1042905D0082923D105E05E4D05600D
:1006000022E05D4D05601FE0544D6D6805F47012E9
:10061000524D6D6805F48034022505EB92421CB9F9
:10062000564D554305600BE04C4D6D6815F4003F89
:1006300003D0524D5543056002E04F4D55430560D0
:1006400002E04D4D056000BF00BF444D6D6805F0F0
:10065000F00109094A4D6B5C0568DD4045603F4D7E
:100660006D6805F4E061090A454D6B5C4568DD4045
:1006700085603A4D6D6805F46051C90A404D6B5C68
:100680004568DD40C560354D6D6805F44041890B16
:100690003C4D6B5CC568B5FBF3F5056130BD29B118
:1006A0002E4A526902432D4B5A6104E02B4A52698B
:1006B00082432A4B5A61704729B1284A9269024302
:1006C000264B9A6104E0254A92698243234B9A6142
:1006D000704729B1214AD2690243204BDA6104E014
:1006E0001E4AD26982431D4BDA61704729B11B4A09
:1006F000D2680243194BDA6004E0184AD268824398
:10070000164BDA60704729B1144A12690243134B41
:100710001A6104E0114A12698243104B1A61704752
:1007200014494039086070470F49C86470470B4945
:10073000C87170470948406A40F0807007494862B4
:10074000704701460020054A92680A4201D0012004
:1007500000E0002070470149887270470010024095
:100760000000FFF8FFFFF6FE00004242D8004242C0
:10077000201002408004424200127A0000093D002D
:10078000140000202400002010B50446CA4884420A
:1007900008D101210420FFF7A9FF00210420FFF761
:1007A000A5FF46E0C548844208D101210820FFF793
:1007B0009DFF00210820FFF799FF3AE0C0488442DE
:1007C00008D101211020FFF791FF00211020FFF731
:1007D0008DFF2EE0BB48844208D101212020FFF785
:1007E00085FF00212020FFF781FF22E0B6488442E8
:1007F00008D101214020FFF779FF00214020FFF7B9
:1008000075FF16E0B148844208D101218020FFF72E
:100810006DFF00218020FFF769FF0AE0AC488442A9
:1008200007D101218015FFF761FF0021A015FFF717
:100830005DFF10BD10B501210846FFF757FF0021ED
:100840000120FFF753FF10BD2DE9F04102460025BE
:100850000026002000230024002791F803C00CF09C
:100860000F0591F803C01CF0100F03D091F802C0DF
:100870004CEA050591F800C0BCF1000F31D01468B6
:1008800000202BE04FF0010C0CFA00F3B1F800C08F
:100890000CEA03069E4220D183004FF00F0C0CFAA5
:1008A00003F7BC4305FA03FC4CEA040491F803C0C7
:1008B000BCF1280F06D14FF0010C0CFA00FCC2F875
:1008C00014C00AE091F803C0BCF1480F05D14FF005
:1008D000010C0CFA00FCC2F810C0401C0828D1D34F
:1008E0001460B1F800C0BCF1FF0F34DD5468002083
:1008F0002EE000F1080C4FF0010808FA0CF3B1F8F3
:1009000000C00CEA03069E4221D183004FF00F0C79
:100910000CFA03F7BC4305FA03FC4CEA040491F813
:1009200003C0BCF1280F05D100F1080C08FA0CF83F
:10093000C2F8148091F803C0BCF1480F07D100F150
:10094000080C4FF0010808FA0CF8C2F81080401C9F
:100950000828CED35460BDE8F0814FF6FF710180C6
:10096000022181700421C170704702460020936803
:100970000B4201D0012000E000207047014688684A
:1009800080B2704702460020D3680B4201D001209C
:1009900000E0002070470146C86880B270470161DE
:1009A0007047416170470AB1016100E041617047E1
:1009B000C16070474FF480320A4382618161826175
:1009C00082698269704702460020424B18684FF6E0
:1009D0008073184040EA021008433E4B186070478D
:1009E0003D49C8617047F0B50A4600230024002144
:1009F000002500F00046B6F1004F02D1354EF169F6
:100A000001E0344E7168C0F3034583B200F4401630
:100A1000B6F5401F08D121F070612E4E766826F0A1
:100A200070662C4F7E6012E000F48016B6F5801FD1
:100A300006D1032606FA05F4A14341F0706106E0F1
:100A4000460D360103FA06F6B14341F0706122B15A
:100A5000460D360103FA06F6314300F00046B6F1C2
:100A6000004F02D11B4EF16101E01A4E7160F0BDE2
:100A700030B500228B071C0F0F2303FA04F2154B2D
:100A800008338C1053F824309343124C08348D10E3
:100A900044F8253023468C1053F824308C07240F5B
:100AA00000FA04F423430B4C08348D1044F825302D
:100AB00030BD0A490860704700080140000C014041
:100AC000001001400014014000180140001C0140CA
:100AD000002001400000014000002042DC002042D4
:100AE00030B943F2DB014FF0204242F8201005E01C
:100AF00043F2D2014FF0204242F820106FF07042D2
:100B0000411C4FF0204343F8212011461A4602EBC6
:100B10008002C2F80411704710280AD118214FF042
:100B200020421166402151664FF0FC319166D1663A
:100B300010E01821F84A11604FF040014FF02042B8
:100B4000C2F884104FF0FC31F44A11604FF020429B
:100B5000C2F88C1070471820F14908604FF000006F
:100B60004FF02041C1F8A4004FF0FC30ED4908607F
:100B700001F10401086001F1040108607047D0E947
:100B800001121143C26811430269114342691143C2
:100B900082691143C2691143026A1143426A1143D7
:100BA000826A1143C26A1143026B11434FF0204322
:100BB000026843F822108168082908D11A460168A2
:100BC00052F8211041F04001026843F82210416BB5
:100BD0000968426B526841EA0211426B926841EA2D
:100BE0000221426B928941EA0241426B128A41EA38
:100BF0000251426B127D41EA0261426B92691143DC
:100C00000268521C4FF0204343F82210C16AB1F52C
:100C1000804F1AD1816B0968826B526841EA0211D8
:100C2000826B926841EA0221826B128A41EA025188
:100C3000826B127D41EA0261826B92691143026804
:100C400003EB8202C2F8041108E06FF070414FF02C
:100C50002043026803EB8202C2F80411704730B5EA
:100C6000002100220023446844F0080485682C43D6
:100C7000C5682C4305692C43456944EA45248569C8
:100C800044EA4531C4692468C5696D6844EA0524AD
:100C9000C5692D8944EA0544C5692D7B44EA05628E
:100CA000046A2468056A6D6844EA0524056A2D898A
:100CB00044EA0544056A2D7B44EA05630468102C68
:100CC00005D14FF020442166A266E36607E0924C0E
:100CD00021604FF02044C4F88820934C236030BD3D
:100CE000016841F01001426841EA4221826841EA0C
:100CF00042318B4A1160C1680968C268526841EA92
:100D00000221C268128941EA0241C268127B41EAAB
:100D10000261844A1160016909680269526841EA06
:100D200002210269128941EA02410269127B41EA09
:100D300002617E4A1160416909684269526841EA6C
:100D400002214269128941EA02414269127B41EA69
:100D500002614FF02042C2F8B010704700210160DC
:100D60000221416000218160C160016141618161B6
:100D7000C16101624FF480514162490081620021EA
:100D8000C16201630F21426B1160426B5160FF2110
:100D9000426B91600F21426BD160426B1161426BDB
:100DA00051610021426B91610F21826B1160826B56
:100DB0005160FF21826B91600F21826BD160826B49
:100DC0001161826B51610021826B9161704710212A
:100DD0000160002141608160C16001614161816108
:100DE000FC21C2691160C2695160C2699160C26927
:100DF000D160026A1160026A5160026A9160026AFF
:100E0000D16070470021016041608160FC21C268AF
:100E10001160C2685160C2689160C268D1600269A5
:100E2000116002695160026991600269D160426992
:100E3000116042695160426991604269D1607047B6
:100E400051B14FF0204252F8202042F001024FF001
:100E5000204343F8202009E04FF0204252F82020A0
:100E6000334B1A404FF0204343F82020704799B18C
:100E7000102808D14FF02042126E42F004024FF0C9
:100E800020431A661DE0244A126842F004024FF023
:100E90002043C3F8802014E0102809D14FF02042ED
:100EA000126E234BDB1E1A404FF020431A6608E0F7
:100EB000194A12681F4B02EA03024FF02043C3F89D
:100EC0008020704740B11649096841F004014FF095
:100ED0002042C2F8A01008E011490968154A01EA49
:100EE00002014FF02042C2F8A010704799B11028BB
:100EF00008D14FF02042126E42F040024FF02043E2
:100F00001A662DE0044A126842F040024FF0204376
:100F1000C3F8802024E00FE0800000A0880000A03B
:100F2000A00000A0A80000A08C0000A0AC0000A0C1
:100F3000FEFF0F00FBFF0F00102808D14FF02042EA
:100F4000126E684B1A404FF020431A6608E0664A5A
:100F50001268644B02EA03024FF02043C3F880207A
:100F6000704701460020102903D14FF02042506FF6
:100F700001E05E4A1068704710B5F2B1102807D141
:100F80004FF020435B6E0B434FF02044636632E02A
:100F9000B0F5807F08D1564B1B6843EA01034FF040
:100FA0002044C4F8843026E0524B1B6843EA010316
:100FB0004FF02044C4F8A4301DE0102807D14FF0B2
:100FC00020435B6E8B434FF02044636613E0B0F523
:100FD000807F08D1464B1B6823EA01034FF0204471
:100FE000C4F8843007E0434B1B6823EA01034FF049
:100FF0002044C4F8A43010BD10B5024600200023E0
:10100000102A03D14FF02044636E07E0B2F5807FD1
:1010100002D1374C236801E0364C23680B4201D0E3
:10102000012000E0002010BD102807D14FF0204221
:10103000526E8A434FF020435A6613E0B0F5807F2A
:1010400008D12B4A126822EA01024FF02043C3F86C
:10105000842007E0274A126822EA01024FF0204369
:10106000C3F8A420704770B5024600200023002476
:101070000025102A03D14FF02046736E07E0B2F529
:10108000807F02D11A4E336801E01A4E336803EABA
:10109000010403EAD10514B10DB1012000E00020E4
:1010A00070BD102808D14FF02042526E22EAD102C2
:1010B0004FF020435A6613E0B0F5807F08D10C4A08
:1010C000126822EAD1024FF02043C3F8842007E0DF
:1010D000084A126822EAD1024FF02043C3F8A42044
:1010E00070470000BFFF0F00800000A0940000A028
:1010F000840000A0A40000A031490143314A1160DE
:10110000704770B5002100230F22C4780CB32D4C1A
:10111000246804F4E064C4F5E064210AC1F1040326
:10112000CA40447804FA03F1847814402143090149
:10113000254C0678A155047804F01F050124AC4025
:1011400005786D114FF0E02606EB8505C5F80041E6
:1011500009E0047804F01F050124AC401B4D06781B
:10116000761145F8264070BD194A0A400243154BD6
:101170001B1F1A60704739B1124A121D12680243D0
:10118000104B1B1D1A6006E00E4A121D12688243A6
:101190000C4B1B1D1A607047042808D14FF0E0214A
:1011A000096941F004014FF0E022116107E04FF0BE
:1011B000E021096921F004014FF0E022116170473C
:1011C0000000FA050CED00E000E400E080E100E042
:1011D00080FFFF1F002044490860091D0860091DA9
:1011E0000860091D086041483F4914310860704794
:1011F00000213D498279002A3AD00A4612680368E4
:101200009A430B461A600A1D126803689A430B1D25
:101210001A60027911440A6803681A430A60324A64
:101220000832126803689A432F4B08331A601A1D5C
:10123000126803689A432C4B0C331A604279102AC7
:101240000ED11A1F126803681A43274B08331A601D
:101250001A1D126803681A43234B0C331A600DE001
:101260002149427911440A6803681A430A6005E07B
:10127000027911440A6803689A430A6070470021A2
:10128000016001710C214171002181717047164983
:10129000103109680143144A103211607047014649
:1012A0000020114A143212680A4201D0012000E0E5
:1012B000002070470C491431086070470146002037
:1012C0000022094B1B6803EA0102074B14331B6819
:1012D0000B4202D00AB1012000E000207047024911
:1012E000143108607047000000040140FFFF0F0048
:1012F00010B50446BE48844208D101218014FFF78E
:10130000F5F90021A014FFF7F1F916E0B94884427D
:1013100008D101210014FFF7F6F900212014FFF78E
:10132000F2F90AE0B448844207D10121C013FFF763
:10133000EAF90021E013FFF7E6F910BD10B500222D
:10134000028802F441520B884C8823438C88234343
:10135000CC8823430C8923434C8923438C89234322
:10136000CC8923431A430280838B4FF2FF742340BE
:1013700083830B8A038210BD2DE9F04F85B00546AB
:101380000C464FF0000902274FF000084FF0010B08
:101390000026B246A88B4FF240010840A8830220E5
:1013A0002884B5F81C90A068022801D100BF38E05D
:1013B000A08810B94FF0010B01E04FF0020B8D48EF
:1013C000854200D100E000BF6846FFF708F9DDF86C
:1013D00000A0E088B0F5007F0AD14FEA1A2000EBA8
:1013E00080004000A168B0FBF1F0401D86B20BE028
:1013F0004FEA4B10BAFBF0F000EB80004000A16810
:10140000B0FBF1F0401D86B20A20B6FBF0F606F004
:101410000108A6EB0800C0F34F074FF6FF7000EA83
:101420000828022F01DBFF2F02DD02274FF0000802
:10143000E08840EA080038432884A088A18908434E
:10144000618808432188084340F4006040EA0909A4
:10145000A5F81C9005B0BDE8F08F00210180418007
:101460008180C180018141818181C1810721018207
:1014700070470021018041808180C180022181600C
:1014800000218181704721B1028842F04002028030
:1014900004E002884FF6BF731A400280704721B102
:1014A000828B42F48062828304E0828B4FF6FF33AA
:1014B0001A408283704730B5002400230C110125A7
:1014C000A540ABB21AB185881D43858002E08588AE
:1014D0009D43858030BD1AB183880B43838002E031
:1014E00083888B4383807047818170470146888958
:1014F0007047A1F57E42FF3A04D0028842F4807220
:10150000028004E002884FF6FF631A4002807047B1
:1015100021B1828842F00402828004E082884FF682
:10152000FB731A408280704702884FF2FF731A40A3
:10153000028002880A4302807047018841F480518A
:101540000180704721B1028842F40052028004E019
:1015500002884DF6FF731A40028070470246002051
:10156000012901D0108B00E0908A70470146088A5B
:101570007047B1F5804F04D1028842F48042028066
:1015800004E002884BF6FF731A400280704702465F
:10159000002013890B4201D0012000E00020704799
:1015A000CA4302817047F0B50246002000240023A0
:1015B000002501F00F070126BE40B4B20B11012631
:1015C0009E40B3B2968806EA03051689264202D0E9
:1015D0000DB1012000E00020F0BD10B5002201F0A7
:1015E0000F040123A3409AB2D343038110BD00002E
:1015F0000030014000380040003C004010B501219F
:101600000220FFF766F86420FE49088041F2883026
:10161000091D0880FB481C38008840F00100F9498A
:101620001C390880F7482838008840F00100F54947
:10163000283908801D200121814042094FF0E02314
:1016400003EB8202C2F8001100BF10BD00B597B0D5
:1016500001217C20FFF730F801210802FFF71FF875
:10166000E948406820F44040E7494860084640683F
:1016700048600846806940F4007088614CF233701D
:10168000ADF8000018208DF8030003208DF802004B
:101690006946DE48FFF7D8F84FF68070ADF80000D5
:1016A00018208DF8030003208DF802006946D84801
:1016B000FFF7CAF810208DF803004020ADF80000B5
:1016C0006946D248FFF7C0F80220ADF8000069462D
:1016D000CF48FFF7B9F818208DF803008020ADF847
:1016E00000006946C948FFF7AFF84FF40060ADF855
:1016F00000006946C548FFF7A7F88021C348FFF7F7
:101700004EF90221C248FFF74CF91021BF48FFF7FC
:1017100046F92021BD48FFF742F902200190002040
:1017200002900520039000200490059006904FF051
:101730008050079000200890099008200A901020FF
:101740000B9000200C900E900F9010904FF4805052
:101750001190002012901390149001A815901690EB
:1017600008A8FFF70CFA01210020FFF769FB02210E
:10177000A748FFF716F9A74800F01AFA0221A44873
:10178000FFF70DF9A34800F013FA0121002000F043
:101790004FFA0A2000F00CFA1021152000F048FA48
:1017A0004021112000F044FA41F22861102000F09D
:1017B0003FFA0021122000F03BFA41F24D011320C4
:1017C00000F036FA0A2000F0F3F91021122000F0A0
:1017D0002FFA0A2000F0ECF942F22061102000F00C
:1017E00027FA43F24D41132000F022FA0A2000F0BC
:1017F000DFF90021012000F01BFA4FF440710220B4
:1018000000F016FA41F23801032000F011FA40F21C
:101810000461082000F00CFA0021092000F008FA09
:1018200008210A2000F004FA0221412000F000FA09
:101830004FF41C51602000F0FBF90121612000F001
:10184000F7F94FF4C171902000F0F2F901219320D3
:1018500000F0EEF91021A32000F0EAF90A2000F0D0
:10186000A7F90021302000F0E3F940F202513120C5
:1018700000F0DEF940F20731322000F0D9F940F2F1
:101880000531332000F0D4F90421342000F0D0F9E0
:1018900040F20241352000F0CBF940F207713620CA
:1018A00000F0C6F940F20351372000F0C1F941F2CF
:1018B0000551382000F0BCF941F20551392000F003
:1018C000B7F90A2000F074F90121072000F0B0F9FF
:1018D0000A2000F06DF92121072000F0A9F9232149
:1018E000072000F0A5F90A2000F062F93321072053
:1018F00000F09EF90A2000F05BF940F23311072056
:1019000000F096F917B000BD00B587B001210803BB
:10191000FEF7D2FEE020ADF8040003208DF80600AB
:1019200018208DF8070001A93B48FEF78DFF102015
:10193000ADF8040003208DF8060010208DF8070094
:1019400001A93548FEF780FF10213348FFF727F83B
:101950000020ADF808004FF48270ADF80A000020B6
:10196000ADF80C000220ADF80E000120ADF810001B
:101970004002ADF812001820ADF814000020ADF8B8
:1019800016000720ADF8180002A92448FFF7D6FC7E
:1019900001212248FFF777FD07B000BD08B50120FF
:1019A000ADF8000000208DF8030002208DF8020041
:1019B00069461B48FEF748FF0A201A4908604FF4A1
:1019C000F01018492C3908600846006840F0010002
:1019D00008600846006840F00800086000BF114831
:1019E0002C38006800F008000828F8D00D482C3882
:1019F000006840F004000B492C39086000BF09481A
:101A00002C3811E02804004000100240001401406E
:101A100000180140FFFF0F000008014000300140A6
:101A20000010014034240140006800F00800042840
:101A3000E5D008BD08B501210846FEF73DFE4FF48C
:101A4000C060FFF759FB17208DF800000F208DF8BC
:101A500001008DF8020001208DF803006846FFF7B1
:101A600050FB08BD4FF0E021096921F004014FF05F
:101A7000E0221161C21700EB5272C2F3C702114B90
:101A80001A701946097801EB4102C2EBC1114FF6F9
:101A9000FF7202EAC1010C4A118070471CB5062191
:101AA0000120FEF7E5FF4020009000208DF80400A3
:101AB0000C208DF8050001208DF806006846FFF720
:101AC00097FB1CBD2E0000203000002010B54020E8
:101AD000FFF7F4FB58B140212E48FEF746FF2E4990
:101AE000087001202D4908704020FFF7F8FB10BD59
:101AF00008B5FFF7ABFDFFF707FFFFF74FFFFFF755
:101B000099FFFFF7CBFF4820FFF7ACFF00215020E3
:101B100000F08EF8EF21512000F08AF800215220C9
:101B200000F086F840F23F11532000F081F80020C9
:101B3000F02302464FF4A071009000F056F901F036
:101B400019F801F04DFA24E014480078012820D15A
:101B500000F06EFA124801681248006800F03EFB7F
:101B6000114800681A2805DC104800682D2801DBA0
:101B700001F088FB0C4800681A280ADD0B48006851
:101B8000B0F58D7F05DD084800686A2801DC01F0AA
:101B900004FCD9E7000C0140280000202A000020A6
:101BA0003800002034000020400000203C000020CD
:101BB000002100E0491C8142FCD3704701461A4ACB
:101BC00012884A434FF0E0235A6100229A610122B1
:101BD0001A6100BF4FF0E022106910F0010F02D02F
:101BE00010F4803FF6D000224FF0E0231A619A6192
:101BF000704701460D4A12784A434FF0E0235A617C
:101C000000229A6101221A6100BF4FF0E0221069A0
:101C100010F0010F02D010F4803FF6D000224FF0F8
:101C2000E0231A619A617047300000202E000020E6
:101C30004FF0C0431880034B19807047014A108051
:101C400070470000000002602DE9F05F04460D4679
:101C500017469846DDF828B0B4F5A07F01DAE82DE4
:101C600001DDBDE8F09F29462020FFF7E1FF05F1E7
:101C70000B012120FFF7DCFF29465020FFF7D8FF9A
:101C800005F10B015120FFF7D3FF21465220FFF74A
:101C9000CFFF611D5320FFF7CBFF29462020FFF720
:101CA000C7FF21462120FFF7C3FF22204FF0C0418C
:101CB0000880A7F12000C7B200261EE007EB47000E
:101CC000AB4901EB800010F806904FF0000A0FE0DE
:101CD00019F0010F03D04046FFF7B0FF02E058466D
:101CE000FFF7ACFF4FEA69090AF1010000F0FF0AB3
:101CF000BAF1060FECDB701CC6B20C2EDEDB002145
:101D00005020FFF795FFEF215120FFF791FF0021B1
:101D10005220FFF78DFF40F23F115320FFF788FF5D
:101D200000BF9EE72DE9F84305460E4614461F46C0
:101D3000DDF8208016E0B5F5A07F03DB002506F175
:101D40000C0086B2E82E02DD002005460646CDF8DE
:101D5000008022783B4631462846FFF775FFA81DD4
:101D600085B2641C20780028E5D1BDE8F88370B501
:101D700004460E46154631462020FFF759FF2146FE
:101D80002120FFF755FF22204FF0C0410880284650
:101D9000FFF754FF70BD70B5044625881FE0A68884
:101DA00018E0607A96FBF0F100FB116028B1207A10
:101DB00095FBF0F100FB115028B9628931462846A5
:101DC000FFF7D5FF04E0A28931462846FFF7CFFF91
:101DD000701C86B2E088B042E3DA681C85B2608885
:101DE000A842DCDA0120E07370BD2DE9F04704461B
:101DF0000D4616461F46DDF8209021462020FFF7AD
:101E000017FF31462120FFF713FF22204FF0C0417A
:101E10000880A04604E04846FFF710FF08F10108DB
:101E200005FB07F04045F6DA4FF00008BDE8F08703
:101E30002DE9F04F85B006468A4617469B46049624
:101E40000397BAEB060002D44FF0010801E04FF00F
:101E5000FF38BBEB070002D44FF0010901E04FF05F
:101E6000FF39B8F1010F02D1AAEB060401E0A6EB9D
:101E70000A04B9F1010F02D1ABEB070501E0A7EBB2
:101E80000B05A54205DD20462C46054601210291A1
:101E900001E000200290C4EB45000190002000907A
:101EA00027E00E9ADDE90310FFF761FF0DE00298CD
:101EB00018B104984044049002E003984844039009
:101EC0000221019801FB1400019001980028EEDA2C
:101ED000029818B103984844039002E004984044E3
:101EE00004900221019801FB050001900098401C1C
:101EF00000900098A042D4DB0020009005B0BDE81F
:101F0000F08F2DE9F05F05460E46144699462046AF
:101F100004EBD071A5EB61018FB204EBD07105EB3E
:101F200061011FFA81FA04EBD071A6EB61011FFA7F
:101F300081F804EBD07106EB61011FFA81FB06E02A
:101F40004A4631463846FFF712FF781C87B257459C
:101F5000F6DD08E04A4641462846FFF708FF08F14B
:101F600001001FFA80F8D845F4DDBDE8F09F0000BD
:101F70003C43000870B54FF40000F84908600520A4
:101F8000FFF737FED02000F035FE0520FFF731FEC9
:101F9000002000F047FE04462402002000F042FE2C
:101FA00004430520FFF725FE8020EC490860E40883
:101FB000EB4804600F20FFF71CFE4FF40000E749D8
:101FC00008600520FFF715FE902000F013FE0520A5
:101FD000FFF70FFE002000F025FE05462D02002031
:101FE00000F020FE05430520FFF703FEED08DD4865
:101FF00005608020D9490860DA480068C0F5805043
:10200000D84908600846006864280FD9D448006899
:1020100064280BD908460068B0F57A6F06D2D0481C
:102020000068B0F57A6F01D2012070BD0020FCE796
:102030002DE9F04F8FB000200E908246002500243D
:1020400083463220FFF7BAFD4021C4481038FEF71E
:102050008CFCC54908700EE0FFF78CFF58B1C148F1
:10206000008807A921F81500BD48008802A921F8B9
:102070001500681CC5B2BC48007808B90A2DEBDB16
:102080000A2D7DD100BF4FF0000B002419E007A8F6
:1020900030F8141007AA601C32F8100081420EDDDF
:1020A00007A9601C31F810A007A830F81410601CB4
:1020B00022F8101007A820F814A04FF0010B601CA4
:1020C000C4B2681EA042E2DCBBF1000FDBD100BF4E
:1020D0004FF0000B002419E002A830F8141002AAF7
:1020E000601C32F8100081420EDD02A9601C31F83C
:1020F00010A002A830F81410601C22F8101002A8DA
:1021000020F814A04FF0010B601CC4B2681EA0425E
:10211000E2DCBBF1000FDBD1BDF82260BDF824701A
:10212000BDF80E80BDF81090BE4203DD07F11E0021
:10213000864243DCB74203DD06F11E0087423DDCE8
:10214000C84503DD09F11E00804537DCC14503DDCC
:1021500008F11E00814531DCBDF82200BDF82410D5
:10216000084400EBD0710190481002F055F80D9032
:10217000BDF80E10BDF81000084400EBD07100E06F
:1021800024E00190481002F047F80C904FF08B418A
:102190000D9802F059F811D84FF08B410C9802F0CD
:1021A00053F80BD80D9802F017F86E4908600C9898
:1021B00002F012F86A49086001200E904021674839
:1021C0001038FEF7D2FB6849087000250E9818B148
:1021D00001200FB0BDE8F08F0020FAE7634A1268D3
:1021E0004243634B1B6803FB0122624B1B681A448A
:1021F000614BB2FBF3F2614B1A60614A12684243D1
:10220000604B1B6803FB01225F4B1B681A445A4B4F
:10221000B2FBF3F25D4B1A60704700B5ADB0002021
:102220002C9000BF00BF00BF00BF00BF00BF202038
:10223000ADF850007820ADF852004FF4784015907A
:10224000A020ADF84800D820ADF84A004FF4FC605B
:1022500013904FF49070ADF840001820ADF8420094
:102260004FF6E070119015980F90BDF852000E9047
:10227000BDF850000D901422DDE90E13FFF741FE6A
:1022800045E043480078012841D14FF4AA70FFF798
:1022900095FC402131481038FEF767FB3249087041
:1022A0000846007878BB28E00A20FFF7A2FCFFF779
:1022B000BFFE0A20FFF79DFC2A4800681B902848B3
:1022C0000068189033A13548189B1B9A01F094F9C7
:1022D0004FF29E704FF47843304A5A2100902020EC
:1022E000FFF720FD40211D481038FEF73EFB1E4938
:1022F000087000202649087003E01B480078002879
:10230000D2D000BF04E0FFE7002021490870B8E701
:1023100000BF00201E49087013980F90BDF84A00B6
:102320000E90BDF848000D901422DDE90E13FFF762
:10233000E8FD67E016480078012863D14FF4AA70E1
:10234000FFF73CFC402105481038FEF70EFB06491C
:1023500008700846007800B94BE050E0100C0140CE
:102360003800002034000020280000204400002015
:10237000480000204C00002040420F003C0000209C
:102380005000002054000020580000204000002091
:102390002A00002025346420253464005C000020DD
:1023A0000A20FFF726FCFFF743FE0A20FFF721FC77
:1023B000FE4800681A90FE4800681790AFF22C01A2
:1023C000FC48179B1A9A01F017F94FF29E704FF4D0
:1023D000FC63F84AC8210090B420FFF7A3FC402119
:1023E000F548FEF7C2FAF54908700020F449087074
:1023F00003E0F24800780028D2D000BF03E00020BC
:10240000EF49087096E700BF0020ED490870119869
:102410000F90BDF842000E90BDF840000D901422C0
:10242000DDE90E13FFF76DFD45E0E5480078012872
:1024300041D14FF4AA70FFF7C1FB4021DE48FEF7FF
:1024400094FADE4908700846007880BB29E00A202B
:10245000FFF7CFFBFFF7ECFD0A20FFF7CAFBD348DD
:1024600000681990D24800681690AFF2D801D148A0
:10247000169B199A01F0C0F84FF29E701F23CD4AA7
:1024800028210090F020FFF74DFC4021CA48FEF7BC
:102490006CFACA4908700020C949087001202C90C4
:1024A00003E0C64800780028D1D000BF04E0FFE771
:1024B0000020C3490870B8E700BF2C9801287CD1E0
:1024C000179801F082FCCDE90601189801F07DFC17
:1024D000CDE90401DDE9062301F088FDCDE90A011B
:1024E000BDF84000079001F070FCCDE90801DDE97E
:1024F0000A2301F07DFCCDE90E01189801F065FC7E
:10250000CDE90201169801F060FCCDE90001DDE99A
:10251000022301F06BFDCDE90601BDF848000390F0
:1025200001F053FCCDE90401DDE9062301F060FC74
:10253000CDE90A01169801F048FCCDE9020117988F
:1025400001F043FCCDE90001DDE9022301F04EFD7D
:10255000CDE90601BDF85000039001F036FCCDE94D
:102560000401DDE9062301F043FCCDE90801DDE9C2
:102570000A2301F0FBF9CDE90C01DDE90E2301F09E
:10258000F5F9CDE92A01179801F01FFCCDE9060104
:10259000189801F01AFCCDE90401DDE9062301F0E9
:1025A00025FDCDE90A01199801F00FFCCDE90801DC
:1025B000DDE90A2301F01CFC00E0D9E2CDE90E01BF
:1025C000189801F002FCCDE90201169801F0FDFB1C
:1025D000CDE90001DDE9022301F008FDCDE90601A6
:1025E0001A9801F0F2FBCDE90401DDE9062301F0C0
:1025F000FFFBCDE90A01169801F0E7FBCDE90201E6
:10260000179801F0E2FBCDE90001DDE9022301F0BA
:10261000EDFCCDE906011B9801F0D7FBCDE90401E3
:10262000DDE9062301F0E4FBCDE90801DDE90A2339
:1026300001F09CF9CDE90C01DDE90E2301F096F9DA
:10264000CDE92801DDE92823DDE92A0101F036FA88
:10265000CDE9260100225B4BDDE9260101F0C8FB34
:10266000CDE90E0101F082FB574908600846026877
:1026700056A1504800F0C0FF4FF29E704FF6E07335
:102680004C4A782100908C20FFF74CFBBDF84000AD
:102690000B9001F09AFBCDE90E01BDF848000790C0
:1026A00001F093FBCDE90A011A9801F08EFBCDE908
:1026B0000401199801F089FBCDE90201DDE9042349
:1026C00001F094FCCDE90601DDE9262301F090FB41
:1026D000CDE90801DDE90A2301F048F9CDE90C0153
:1026E000DDE90E2301F082FCCDE92A01169801F004
:1026F0006CFBCDE90E01179801F067FBCDE90C01E9
:10270000DDE90E2301F072FCCDE92801DDE9282383
:10271000DDE92A0101F0D2F9CDE924010022294B9B
:10272000DDE9240101F064FBCDE90E0101F01EFB9F
:10273000284908600846026827A11E4800F05CFF8F
:102740004FF29E704FF6E0731A4A822100908C205F
:10275000FFF7E8FA169801F038FBCDE90A01DDE948
:10276000242301F045FBCDE90E01199801F02DFB62
:10277000CDE90601DDE9262301F03AFBCDE90A01A6
:10278000BDF84000079001F020FBCDE90801DDE92C
:102790000A2301F02BFCCDE90C01DDE90E2301F049
:1027A00025FCCDE922010022064B19E0340000206F
:1027B000380000205C000020000C014028000020B0
:1027C0002A00002080842E4144000020413D253411
:1027D0006400000048000020423D253464000000F1
:1027E000DDE9220101F004FBCDE90E0101F0BEFAA2
:1027F000F049086008460268EFA1F14800F0FCFECD
:102800004FF29E704FF6E073ED4A8C21009008461F
:10281000FFF788FA179801F0D8FACDE90601189861
:1028200001F0D3FACDE90401DDE9062301F0DEFB76
:10283000CDE90A01BDF84200079001F0C6FACDE9E2
:102840000801DDE90A2301F0D3FACDE90E01189859
:1028500001F0BBFACDE90201169801F0B6FACDE914
:102860000001DDE9022301F0C1FBCDE90601BDF85D
:102870004A00039001F0A9FACDE90401DDE906233D
:1028800001F0B6FACDE90A01169801F09EFACDE9F9
:102890000201179801F099FACDE90001DDE9022360
:1028A00001F0A4FBCDE90601BDF85200039001F050
:1028B0008CFACDE90401DDE9062301F099FACDE9AE
:1028C0000801DDE90A2301F051F8CDE90C01DDE949
:1028D0000E2301F04BF8CDE92A01179801F075FAA3
:1028E000CDE90601189801F070FACDE90401DDE99F
:1028F000062301F07BFBCDE90A01199801F065FA86
:10290000CDE90801DDE90A2301F072FACDE90E01F3
:10291000189801F05AFACDE90201169801F055FA1B
:10292000CDE90001DDE9022301F060FBCDE90601FC
:102930001A9801F04AFACDE90401DDE9062301F015
:1029400057FACDE90A01169801F03FFACDE90201E4
:10295000179801F03AFACDE90001DDE9022301F010
:1029600045FBCDE906011B9801F02FFACDE90401E2
:10297000DDE9062301F03CFACDE90801DDE90A238F
:1029800000F0F4FFCDE90C01DDE90E2300F0EEFFCD
:10299000CDE92801DDE92823DDE92A0101F08EF8DF
:1029A000CDE920010022874BDDE9200101F020FA6A
:1029B000CDE90E0101F0DAF98349086008460268A2
:1029C00082A17F4800F018FE4FF29E704FF6E07330
:1029D0007B4A962100908C20FFF7A4F9BDF84200B5
:1029E0000B9001F0F2F9CDE90E01BDF84A00079015
:1029F00001F0EBF9CDE90A011A9801F0E6F9CDE909
:102A00000401199801F0E1F9CDE90201DDE904239F
:102A100001F0ECFACDE90601DDE9202301F0E8F947
:102A2000CDE90801DDE90A2300F0A0FFCDE90C01A2
:102A3000DDE90E2301F0DAFACDE92A01169801F05A
:102A4000C4F9CDE90E01179801F0BFF9CDE90C01E9
:102A5000DDE90E2301F0CAFACDE92801DDE92823DA
:102A6000DDE92A0101F02AF8CDE91E010022554BCB
:102A7000DDE91E0101F0BCF9CDE90E0101F076F9A6
:102A8000544908600846026853A14D4800F0B4FD5F
:102A90004FF29E704FF6E073494AA02100908C20BF
:102AA000FFF740F9169801F090F9CDE90A01DDE948
:102AB0001E2301F09DF9CDE90E01199801F085F969
:102AC000CDE90601DDE9202301F092F9CDE90A0103
:102AD000BDF84200079001F078F9CDE90801DDE981
:102AE0000A2301F083FACDE90C01DDE90E2301F0A0
:102AF0007DFACDE91C010022324BDDE91C0101F019
:102B000077F9CDE90E0101F031F935490860084641
:102B1000026834A12A4800F06FFD4FF29E704FF614
:102B2000E073274AAA2100908C20FFF7FBF80020D1
:102B300000F094F800212D48006800F011F90421FC
:102B40002B48006800F00CF908211A48006800F0D2
:102B500007F912211C48006800F002F916211D48EF
:102B6000006800F0FDF820211D48006800F0F8F82A
:102B70002DB000BD10B5002000F007F91B4908601A
:102B8000042000F002F91A490860082000F0FDF85E
:102B900008490860122000F0F8F80B490860162078
:102BA00000F0F3F80B490860202000F0EEF80C4923
:102BB000086010BD4C000020433D25346400000037
:102BC0005C00002080842E4150000020443D2534CC
:102BD0006400000054000020453D253464000000DE
:102BE00058000020463D25346400000044000020C9
:102BF0004800002010B5044600BF02216E48FEF7D1
:102C0000C6FC0028F9D021466B48FEF76DFC00BFDA
:102C100001216948FEF7BBFC0028F9D06648FEF7A1
:102C200065FC10BD10B504462046FFF7E3FF10BD5C
:102C300010B5002410216148FDF7B3FE0520FFF711
:102C4000F1FF00BFA520FFF7EDFFC4B214F0010FA4
:102C5000F8D110215948FDF7A2FE10BD10B5044669
:102C6000FFF7E6FF10215548FDF79BFE0620FFF712
:102C7000D9FF10215148FDF792FEFFF7D9FF10212F
:102C80004E48FDF78EFED820FFF7CCFF0020FFF75F
:102C9000C9FF200AFFF7C6FFE0B2FFF7C3FF10210C
:102CA0004648FDF77CFE10BD2DE9F04106460C4676
:102CB0001746FFF7BDFF10214048FDF772FE0620C2
:102CC000FFF7B0FF10213D48FDF769FEFFF7B0FFA9
:102CD00010213A48FDF765FE0220FFF7A3FFC4F379
:102CE0000740FFF79FFFC4F30720FFF79BFFE0B209
:102CF000FFF798FF002503E0705DFFF793FF6D1C61
:102D0000BD42F9D310212D48FDF749FEBDE8F08101
:102D10002DE9F04106460C461746FFF789FF1021C2
:102D20002648FDF73EFE0320FFF77CFFC4F3074073
:102D3000FFF778FFC4F30720FFF774FFE0B2FFF757
:102D400071FF002504E00020FFF76CFF70556D1C3B
:102D5000BD42F8D310211948FDF721FEBDE8F081EE
:102D600038B504460D46200E8DF80000200C8DF875
:102D70000100200A8DF80200E0B28DF80300042261
:102D800029466846FFF790FF38BD38B5044604224F
:102D900021466846FFF7BCFF9DF8000000069DF83D
:102DA000011000EB01409DF8021000EB01209DF89E
:102DB00003104518284638BD003001400008014086
:102DC0002DE9F04708AC94E8F010DDE90D890180A9
:102DD00042808380C48005724681878180F80EC05E
:102DE000A0F810804FF0010A80F812A04FF0000AFE
:102DF00080F813A080F81490BDE8F0872DE9F04327
:102E000007AC94E8F010DDF83080018042808380C8
:102E1000C480057246724781A0F80CC04FF00109CA
:102E200080F80E904FF0000980F80F9080F8108025
:102E3000BDE8F083F8B5044660882188884203DA4B
:102E40006688208860802680E088A188884203DA2E
:102E5000E688A088E080A680207A08B9012000E0FA
:102E60000020A17B09B9012100E00021084202D025
:102E70000020E074F8BDA07C10B90020E074F9E7F0
:102E8000207A012800D100E00020A17B09B90121AE
:102E900000E0002108422BD0002526E06089009048
:102EA000A7887B197A1961882088FEF7C1FF60899D
:102EB0000090E7887B1B7A1B61882088FEF7B8FFAB
:102EC00060890090E388A288278879197819FEF72D
:102ED000AFFF60890090E7887B1CA2886788791B18
:102EE000781BFEF7A5FF681C85B2A089A842D5DC37
:102EF000207A08B9012000E00020A17B012900D13F
:102F000000E00021084212D0A5880DE0268806E0E6
:102F1000228A29463046FEF72AFF701C86B2608856
:102F2000B042F5DC681C85B2E088A842EEDC207A6D
:102F3000012800D100E00020A17B012900D100E0A0
:102F40000021084248D0002526E060890090A7882B
:102F50007B197A1961882088FEF76AFF60890090E2
:102F6000E7887B1B7A1B61882088FEF761FF6089F8
:102F70000090E388A288278879197819FEF758FF0E
:102F800060890090E7887B1CA2886788791B781B82
:102F9000FEF74EFF681C85B2A089A842D5DCA08848
:102FA000A189084485B212E02088A189084486B22C
:102FB00006E0228A29463046FEF7D9FE701C86B20A
:102FC0006088A189401AB042F3DA681C85B2E088B3
:102FD000A189401AA842E7DA0120E07400BF49E75E
:102FE00000B587B04FF6FF70F02300224FF4A071B8
:102FF00000901046FEF7F9FE01204FF29E710390FB
:10300000CDE904010690002001211A220346CDE9F2
:103010000021029040F23F120146FE48FFF7D0FE29
:10302000FC48FFF707FF01204FF29E710390CDE9A6
:103030000401069000200121EF221A23CDE900218E
:10304000029040F23F1240F21B11F348FFF7B8FE26
:10305000F148FFF7EFFE4FF29E700023EFA202212E
:1030600000900846FEF75EFE4FF29E700023EDA230
:103070000D2100900220FEF755FE00201A23024683
:103080002D2100900846FEF7D3FE4FF29E700023DC
:10309000E6A2022100902F20FEF744FE4FF29E7020
:1030A0000023E4A20D2100903C20FEF73BFE4FF2EE
:1030B0009E700023E1A2022100906B20FEF732FEF9
:1030C0004FF29E700023DEA20D2100906B20FEF7D0
:1030D00029FE4FF29E700023DBA2022100909D206A
:1030E000FEF720FE4FF29E700023D5A20D21009026
:1030F0009D20FEF717FE4FF29E700023D4A20221FE
:103100000090D220FEF70EFE4FF29E700023D2A256
:103110000D210090D220FEF705FE00201A23024662
:10312000F12100900846FEF783FE4FF29E700023C7
:10313000CAA202210090F420FEF7F4FD4FF29E7027
:103140004FF47843BEA20D210090F420FEF7EAFD73
:103150004FF29E700023C3A20221009040F21D1086
:10316000FEF7E0FD4FF29E704FF47843BAA20D21B6
:10317000009040F21D10FEF7D5FD4FF29E70002327
:10318000BAA21E21009040F21D10FEF7CBFD4FF2B7
:103190009E700023B7A22821009040F21D10FEF778
:1031A000C1FD4FF29E700023B3A23221009040F285
:1031B0001D10FEF7B7FD4FF29E700023AFA246210F
:1031C000009040F21D10FEF7ADFD4FF29E700023FF
:1031D000A8A25021009040F21D10FEF7A3FD4FF26F
:1031E0009E700023A7A25A21009040F21D10FEF706
:1031F00099FD00204FF6E073A3A27D2100904FF4CB
:103200008F70FEF78FFD00204FF6A063A0A29621DD
:1032100000904FF48F70FEF785FD4FF4FC600023A3
:103220009DA2AF2100904FF48F70FEF77BFD4FF60B
:10323000A06000239AA2C82100904FF49170FEF77D
:1032400071FD4FF47840002397A2E12100904FF4E4
:103250009170FEF767FD012000211F220A23CDE9AE
:103260000232CDE90410EF21CDE900131A2340F218
:103270001B1200218E48FFF7C1FD8D48FEF78BFD24
:1032800007B000BD10B588B001204FF4FC61039079
:10329000CDE90401069000202E22CDE900201A235A
:1032A0001622014602908348FFF78AFD01204FF461
:1032B00078410390CDE90401069000202E22CDE94B
:1032C00000201A232D22162102907B48FFF778FD5B
:1032D0000120794988747749887400243EE0764853
:1032E000408874490880084600881930488008469C
:1032F00040887149088008460088183048806D4829
:10330000FFF798FD00206B4A0090118810882E234B
:103310000022FEF78DFD6848FFF78CFD4FF4FC603E
:10332000644A00909288121D91B2624A1288093252
:1033300090B200232D22FEF787FC4FF478405E4ABE
:1033400000909288121D91B25B4A1288093290B2A5
:1033500000232B22FEF778FC601CC4B2042CBEDBD9
:1033600001204FF29E710022CDE90302CDE9051044
:10337000104601212E22CDE9002102904E484288BC
:103380001A232D214D48FFF71BFD01204B4988745E
:103390000846FFF74FFD08B010BD00B587B001200B
:1033A0004FF478410390CDE90401069000202E22CD
:1033B000CDE900201A2340F21B1240F205110290C1
:1033C0003D48FFF7FDFC01204FF4FC610390CDE97F
:1033D0000401069000204222CDE900202E2340F275
:1033E0001B1240F2051102903248FFF7E9FC314808
:1033F000FFF720FD3048FFF71DFD01204FF4FC6171
:103400000022CDE90302CDE9051011460246294804
:10341000C08855E0660000207C0000204D6F646588
:103420003A00000045712E74696D650020204265E8
:1034300067696E003130303000000000456E640076
:10344000313230300000000053746570000000001D
:103450007174792E000000003130000052504D6D23
:10346000633200004672657100000000742F6469C9
:1034700076000000313030006D730000762F6469F3
:10348000760000006D7600004D656E75200000002E
:1034900043616C632000000053544152540000000B
:1034A000535445500000000053544F50000000009A
:1034B000EA000020D4000020BE000020A800002068
:1034C000CDE9012100904948838840F21B1240F267
:1034D00005114748FFF774FC4548FFF7ABFC4FF474
:1034E000FC60444A00909288121D91B2414A1288B1
:1034F000083290B200232D22FEF7A6FB4FF478404D
:103500003A4A00909288121D91B2384A12880832C5
:1035100090B200232B22FEF797FB01204FF4784155
:103520000390CDE90401069000205622CDE9002049
:10353000422340F21B1240F2051102902B48FFF784
:103540003FFC01204FF4FC610390CDE9040106909B
:1035500000206A22CDE90020562340F21B1240F2DF
:10356000051102902348FFF72BFC2248FFF762FC6D
:103570001E48FFF75FFC4FF4FC601E4A00909288E3
:10358000121D91B21B4A1288083290B200232D22DC
:10359000FEF75AFB4FF47840144A00909288121DAF
:1035A00091B2124A1288083290B200232B22FEF701
:1035B0004BFB01204FF4FC610022CDE90302CDE971
:1035C0000510114602460B48C088CDE90121009044
:1035D0000648838840F21B1240F205110448FFF7A9
:1035E000EFFB0348FFF726FC07B000BDBE0000203C
:1035F00092000020D40000200FB41CB5074B06AA8F
:103600007B4469460090059800F05BF9002069460C
:1036100000F06AF91CBC5DF814FB0000E502000034
:1036200070B5044685690068C10601D5302600E002
:103630002026C00708D070BDD4E90121304690474C
:10364000206A00F1010020626D1EF5D570BD70B5D5
:10365000044685690078C00708D170BDD4E901210E
:1036600020209047206A00F1010020626D1EF5D5F0
:1036700070BD00002DE9F041064600241068752950
:10368000314616A511D0AFF30080002803DAC0F14F
:10369000000013A507E031688A0701D511A502E0F3
:1036A000490704D510A5012401E0AFF300800021F3
:1036B0000A2306F1240707E0B0FBF3F203FB120034
:1036C000303078541046491C0028F5D123462A464C
:1036D0003046BDE8F04100F093B800000000000063
:1036E0002D0000002B000000200000002DE9F04715
:1036F0004FF0000A89460446C0F820A02046E16841
:103700008847002876D0252806D0D4E901219047A3
:10371000206A401C2062F1E7E168204600258847C6
:10372000C4F81CA006460027C4F818A02A2E09D009
:10373000304600F014F938B304EB8708303EC8F87F
:10374000186019E059F8041B204604EB87029161C8
:10375000E1688847012F064618D1E069002820DA81
:1037600025F020051DE0D8F8180000EB800006EBDE
:1037700040003038C8F818002046E16888470646FF
:1037800000F0EDF80028EED1012F0AD02E2E08D13E
:103790002046E16888477F1C0646022F45F0200539
:1037A000C4DBA069002803DA404245F00105A061AE
:1037B000E80701D025F01005B6B1A6F1410019289F
:1037C00002D8203645F400654A4631462046256039
:1037D0004D46FCF7E7FC58B1012806D0ED1D25F059
:1037E000070000F1080989E704E005F1040985E70D
:1037F00030468AE7206ABDE8F08770477047704717
:103800002DE9F0470D4699469246044600F12408FA
:103810000168880604D5E06921F01001216000E00C
:103820000120A84202DDA0EB050700E00027A16906
:1038300007EB050202EB0900A1EB0000A061207874
:10384000C00602D42046FFF7EBFE002608E0D4E9CC
:1038500001211AF806009047206A401C761C20625D
:103860004E45F4DB2078C0060AD52046FFF7D8FE87
:1038700006E0D4E9012130209047206A401C2062F4
:10388000381EA7F10107F4DC07E0D4E9012118F89C
:1038900005009047206A401C2062281EA5F1010502
:1038A000F3DC2046FFF7D3FE2078000602D5022085
:1038B000BDE8F0870120FBE701694A1C0261087836
:1038C000704700B58FB0CDE9013100210591054960
:1038D0007944CDE9031011466846FFF707FF0FB0A2
:1038E00000BD0000E5FFFFFF0A6802F8010B0A6057
:1038F0007047754600F028F8AE4605006946534605
:1039000020F00700854618B020B5FCF771FCBDE833
:1039100020404FF000064FF000074FF000084FF036
:10392000000B21F00701AC46ACE8C009ACE8C009C7
:10393000ACE8C009ACE8C0098D4670470446AFF357
:1039400000802046FCF740FC00487047FC00002047
:1039500001491820ABBEFEE7260002007047303850
:103960000A2801D2012070470020704710B591EA63
:10397000030F48BF83F0004300F14083841A71EBCA
:10398000030C05D2121943EB0C03001B61EB0C0175
:10399000DFF824E14FEA1154A4EB135C1EEA430F55
:1039A00018BF9EEA445F73D023EA0E03DCF1200EB9
:1039B00021EA045143F4801332D322FA0CFE10EBB7
:1039C0000E0023FA0CFE41EB0E01CCF1200E03FA9F
:1039D0000EFE10EB0E0051F10001B1F5801FCCF18D
:1039E000200E32D201EB045112FA0EF2BDE8104063
:1039F00058BF7047401C38BF5FEA420218BF70478B
:103A0000002814BF20F0010041F100014FEA4103FA
:103A100013F5001F38BF7047A1F1C04100F0E0BAB4
:103A2000012A43EB0302ACF1200CDCF11F0E32BF84
:103A30004FF0000E23FA0CF310EB030041EB04519E
:103A4000B4EB115FD0D0A1EB045101F5801149080E
:103A50005FEA300001EB04510ED350F1000038BF93
:103A600012FA0EFE08D1BDE81040C9E7401C38BF6D
:103A70005FEA4202CAD1C3E7BDE810404FEA410302
:103A800013F5001F38BF7047A1F1C04100F0A8BA7C
:103A90009EEA445F08D011EA5E0FBDE8104004BF03
:103AA00001F0004100207047BDE8104070B500F003
:103AB00049FA00BF64FBBE3E0000E0FF2DE9C041B3
:103AC00030B4DFF8A0C23CEA111418BF3CEA13146A
:103AD00000F0EC8081EA03051CEA111444EAD57475
:103AE00018BF1CEA131500F0C780A4EB05044FF0C3
:103AF000004545EAC12145EAC32341EA505143EA62
:103B0000525304F17F74994204F500344FEAC02007
:103B10004FEAC22208BF904200F09C804FEA136532
:103B20000FF24016765D4FEA134506FB05F7C7F125
:103B3000807706FB07F74FEAD737A7FB0368764283
:103B4000C8F58038A7FB06CE38BFA8F1010807FBEF
:103B500008E64FF0000EA6FB028CE6FB03CEDCF17C
:103B6000000CCEF1004E38BFAEF1010EA6FB0C5892
:103B70004FF000074FF00005E6FB0E87A1FB08C6DB
:103B8000A0FB07CE16EB0E0645F10005E1FB07652D
:103B900015F1E04E7EBFA4F580345FEA46066D4124
:103BA00016F1800745F100054FEA17274FEA066630
:103BB00047EA0567A6F1DE46B6F1805F4FEA1525B4
:103BC0001FD9384624F0010C05EBC471BCF1FE6F1F
:103BD00001EB0C1102D8F0BCBDE8008124425CBFAF
:103BE00001F5801E9EEAC47F02D4F0BCBDE80081CE
:103BF000244238D4F0BCA1F1C041BDE8004100F03E
:103C0000EFB94FEAD22242EA43524FEAD323A7FB4D
:103C100002864FEAD02040EA415007FB03661EEAC5
:103C20000E0F4FEAD12105FB026658BFA6EB0056E6
:103C3000B6EB00564FEA520E4EEAC37E18EB0E0E5C
:103C400056EB530EBDD518EB02085E417F1C55F1B3
:103C50000005B6E74FF480154FF000074FF000065F
:103C60004FF00008ADE7F0BC4FF0000001F1C0419B
:103C700001F00041BDE8008111EA0C1F0CEA1315A8
:103C800000D00CE013EA0C1F00F025804FF000007C
:103C9000F0BC81EA030101F00041BDE80081F0BC05
:103CA000BDE8004181EA030100F09AB9F0BCBDE82B
:103CB000004170B500F046F9097EFC3E00F007B8FF
:103CC00081EA03014FF0000001F00041704781EAF2
:103CD000030100F085B9F0BCBDE800414FF00000E1
:103CE00021497047FFFDFBF9F7F5F4F2F0EEEDEB3B
:103CF000E9E8E6E4E3E1E0DEDDDBDAD8D7D5D4D3EA
:103D0000D1D0CFCDCCCBCAC8C7C6C5C4C2C1C0BF35
:103D1000BEBDBCBBBAB9B8B7B6B5B4B3B2B1B0AF3B
:103D2000AEADACABAAA9A8A8A7A6A5A4A3A3A2A11F
:103D3000A09F9F9E9D9C9C9B9A99999897979695DA
:103D400095949393929191908F8F8E8E8D8C8C8B76
:103D50008B8A8989888887878685858484838382FE
:103D6000828181800000FF070000F87F4FEA410355
:103D70004FEA5353A3F58063D3F11E03C8BFD3F1B9
:103D8000210C0CDD4FF0004242EAC12242EA5052BF
:103D900032FA03FC8CEAE17CACEBE1707047102B4B
:103DA000C4BF0020704703F5787CBCF1FF3F04D00E
:103DB0006FF0004282EA2100704770B500F0C2F84F
:103DC0004992248000207047F2E7B0FA80F310FA9D
:103DD00003F10AD0C3F11D0303F580634FEA41509C
:103DE0004FEA035202EBD12170474FF000007047B9
:103DF000DFF848C170B51CEA111E1EBF1CEA13157E
:103E00009EEA0C0F95EA0C0F00F06F8081EA030424
:103E100023EA4C134EEAD47E21EA4C1141F480117E
:103E200043F48013AE44A1FB024CA0FB0365AEF14A
:103E30007F7E361955EB0C05A1FB034C4CF10003BA
:103E4000A0FB021C16EB0C06654153F1000309426E
:103E500018BF46F0010613F4007F0BD14FEA03317F
:103E60004FEA0530340341EA155140EA16506FF02D
:103E700003020AE04FEAC3214FEAC520F40241EAF7
:103E8000555140EA56506FF0020202EB2E4201EB10
:103E9000025585EACE710AD05FEA440C18BF24F0BF
:103EA000004450F1000041F1000120EAD47040F2DA
:103EB000FE7C624500D270BDA84214BF4FF0804422
:103EC0004FF04044002E08BF0024BEF1806FA8BF11
:103ED000A1F1C041BDE8704080F282804FF0000047
:103EE00001F1C04101F0004170479EEA0C0F0CEA5D
:103EF000131518BF95EA0C0F06D04FF0000081EAA9
:103F0000030E0EF0004170BD00F01CF88900013E68
:103F100000F007B800F009B84FEA430C5FEA5C5CB8
:103F200008D081EA030100F05BB84FEA410C5FEA78
:103F30005C5CF6D14FF00000014970470000FF07BC
:103F40000000F87F0EF1020E2EF0030E5EF8046BF7
:103F5000364205D4012A43EB030515F5001F12D89C
:103F6000012841EB010C1CF5001F0CD80ED14FEAC3
:103F7000D17C15F5001F0CEB4C0C0CF1020C08BFAA
:103F80004CEBD37C04E04FF0080C01E04FEAD37C0B
:103F90000CEB4C0526FA05F606F00706B6F1040C04
:103FA00006D20EEB860CBDE870404CF0010C604769
:103FB000DFE80CF0090B02024FF000414FF0000067
:103FC000A1F5002170BD19461046012851EB0104EE
:103FD00018BFD4F5001484BF002001F0004170BD6B
:103FE0000808A0F500114FEA3101704710B591EAB9
:103FF000030F48BF83F000433FF5C0AC841A71EB58
:10400000030C07D212198CF0004C43EB0C03001B7D
:1040100061EB0C01DFF8A4E14FEA1154A4EB135C4F
:104020001EEA430F18BF9EEA445F00F0B08023EA07
:104030006E03524221EA0451C3EB6E0338BF5B1E8C
:10404000DCF1200E25D322FA0CFE10EB0E0043FA11
:104050000CFE41EB0E01CCF1200E03FA0EFE10EB2C
:104060000E0051F10001CCF1200E29D412FA0EF20B
:1040700001EB0451BDE8104058BF7047401C1CBF05
:10408000B2F1004F704700280CBF491C20F001001E
:10409000704712EB020E43EB030218BF4FF0010E04
:1040A0004EEA4202ACF1200CDCF11E0E54D943FA68
:1040B0000CFE10EB0E0051F1FF31CCF11E0ED5D5E8
:1040C0000EF1010E12FA0EFE404141EB010101EB2F
:1040D000445C5FEA5C5C10D910EBDE7001EB0451CC
:1040E00038BFBEF1004FBDE8104018BF7047002830
:1040F0000CBF491C20F00100704730D24FEAD42C8D
:1041000011F5001124F400641BD0B1FA81F20B3ACE
:10411000A41AA41ED2F12003914030FA03F31943EC
:10412000904001EBCC71002C01EB0451BDE8104034
:10413000A8BF704701F1C0414FF0000001F00041FD
:104140007047B0FA80F310FA03F100D110BDE41A01
:10415000173C4805C90AE4E701EB045110BD4910BA
:1041600001EB0451BDE810404FEA300002E04FF08F
:10417000000170474A0008BF0042F8D0B2F5001FA6
:1041800028BF704701F000414FF0000070479EEAE1
:10419000445F07D011EA5E0FBDE8104004BF002164
:1041A00000207047BDE8104070B5FFF7CBFE00BFA0
:1041B00040DFF63E83F00041104670470000E0FF0C
:1041C000401058BFC0F14040491058BFC1F14041B4
:1041D0008142EFF300807047C10DD1F19E0206DBF2
:1041E0004FEA002343F0004323FA02F070470042F5
:1041F00007D54FEA4001B1F1FE4F02D24FF0000067
:10420000704710B500F054F84992248000207047A0
:104210006FEA20007047000010F0004148BF4042A4
:10422000B0FA80F310FA03F2C3F19D030BD051EA08
:10423000C35101EB1220530638BF704700F1010053
:1042400008BF20F00100704750EA010C00F1138014
:104250001CF5000F58BFBCF5000F01D48842704711
:1042600007D710F5000F58BF11F5000F15D488427D
:104270007047894270471CF5000F04D5BCF5000F4C
:10428000F7D5814270474FF0807C1CEB400F38BF60
:104290001CEB410F01D28142704710B500F008F8C5
:1042A000922449004FF000504FF08051FFF788BF33
:1042B0000EF1020E2EF0030E5EF8044B244204D4DD
:1042C0004FEA4102B2F17F4F11D84FEA4003B3F1F8
:1042D0007F4F0CD80ED14FEAD07CB2F17F4F0CEB60
:1042E0004C0C0CF1020C08BF4CEBD17C04E04FF0FD
:1042F000080C01E04FEAD17C0CEB4C0324FA03F4E8
:1043000004F00704B4F1040C06D20EEB840CBDE8F3
:1043100010404CF0010C6047DFE80CF00708020287
:104320004FF00040A0F5800010BD0846420018BFC5
:10433000D2F1807288BF00F0004010BD0000000084
:104340000000000000000000000004040404040455
:104350000004000000140A0A000000000000000031
:10436000000014143F140A3F0A0A000000041E153E
:1043700005060C14150F0400000012150D0A142C6C
:104380002A1200000000040A0A1E15150936000052
:1043900000020201000000000000000000201008E0
:1043A0000808080808102000000204080808080887
:1043B0000804020000000004150E0E1504000000A1
:1043C00000000404041F04040400000000000000B6
:1043D000000000000002020100000000001F0000B9
:1043E00000000000000000000000000000020000CB
:1043F00000100808080404020202010000000E1167
:1044000011111111110E000000000406040404042F
:10441000040E000000000E1111080402011F00002C
:1044200000000E11100C1010110E00000000080CFE
:104430000A0A091E0818000000001F01010F1010D1
:10444000110E000000000E09010F1111110E0000E5
:1044500000001F09080404040404000000000E11F9
:10446000110E1111110E000000000E1111111E107D
:10447000120E000000000000040000000004000014
:1044800000000000000400000004040000201008E8
:104490000402040810200000000000001F00001F9C
:1044A00000000000000204081020100804020000B0
:1044B00000000E11110804040004000000000E1199
:1044C0001915151D011E0000000004040C0A0A1E27
:1044D0001233000000000F12120E1212120F000011
:1044E00000001E1101010101110E000000000F1259
:1044F00012121212120F000000001F120A0E0A02FE
:10450000121F000000001F120A0E0A02020700001C
:1045100000001C1201013911120C000000003312BE
:10452000121E12121233000000001F0404040404BF
:10453000041F000000003E080808080808090700DA
:10454000000037120A060A0A1237000000000702AC
:1045500002020202223F000000001B1B1B1B15155C
:104560001515000000003B1216161A1A121700004B
:1045700000000E1111111111110E000000000F1298
:10458000120E02020207000000000E111111111795
:10459000190E180000000F12120E0A121237000036
:1045A00000001E1101060810110F000000001F1569
:1045B00004040404040E000000003312121212124C
:1045C000120C000000003312120A0A0C040400004E
:1045D00000001515150E0A0A0A0A000000001B0A41
:1045E0000A04040A0A1B000000001B0A0A0404044F
:1045F000040E000000001F0908040402121F00003E
:10460000001C04040404040404041C00000202024C
:104610000404080808100000000E0808080808082C
:1046200008080E0000040A0000000000000000005E
:1046300000000000000000000000003F0004000037
:10464000000000000000000000000000000C121C30
:10465000123C000000000302020E1212120E0000B3
:1046600000000000001C1202021C000000001810D4
:10467000101C1212123C000000000000000C121E60
:10468000021C000000003804041E0404041E000084
:1046900000000000003C120C021E221C000003025D
:1046A000020E12121237000000000400000604047B
:1046B000040E000000000800000C080808080807A5
:1046C00000000302023A0A0E12370000000007043D
:1046D00004040404041F000000000000000F15156E
:1046E0001515000000000000000F12121237000024
:1046F00000000000000C1212120C0000000000006C
:10470000000F1212120E020700000000001C12120D
:10471000121C103800000000001B060202070000F7
:1047200000000000001E020C101E0000000000042B
:10473000040E04040418000000000000001B121204
:10474000123C0000000000000037120A0C040000B8
:10475000000000000015150E0A0A0000000000000D
:10476000001B0A040A1B0000000000000037120AA8
:104770000C04040300000000001E0804041E0000D6
:10478000001808080804080808081800080808089D
:1047900008080808080808080006040404080404B7
:1047A00004040600022518000000000000000000BC
:1047B000D0470008000000205C0000006C010008E9
:1047C0002C4800085C000020040700008801000855
:1047D00000A24A04000000000000000001020304DF
:1047E0000607080900000000010203040102030497
:1047F0000607080902040608000000000000000087
:1048000000000000000000000000000000000000A8
:104810000000000000000000000000000000000098
:0C4820000000000000000000000000008C
:0400000508000131BD
:00000001FF
